:020000040000FA
:060000000A128A110C280F
:10000800FE00030EF1000A08F2000A128A112C2BD6
:100018000A128A110F28FA0183120313D2018301ED
:100028000A128A11E22B8312031331088039B200B5
:100038003208BB003108B2003207B3003308C200EF
:10004800B01F2728282829284214420803192D28D8
:100058002E283E28420A031D322833283B28003028
:10006800B1000030B0000030AF000030AE00B01773
:10007800B10146280030B1000030B0000030AF00B8
:100088000030AE002D088039B2003208BB062D08BA
:10009800B2003207B3003308C300AC1F54285528F8
:1000A80056284314430803195A285B286B28430A27
:1000B800031D5F28602868280030AD000030AC00C0
:1000C8000030AB000030AA00AC17AD017328003037
:1000D800AD000030AC000030AB000030AA002D08A5
:1000E8002C042B042A04031D7A287B28942800302A
:1000F800B1000030B0000030AF000030AE008030FA
:10010800B0047F30B1043B08B2003208B1043108B2
:10011800AD003008AC002F08AB002E08AA00F32968
:100128004208031D98289928A2280030AD00003005
:10013800AC000030AB000030AA00F3294208B2003E
:10014800B3013308B50043083202B400031CB503F9
:1001580034087F3EBC0035080318013E003EBD0050
:100168003108BA003008B9002F08B8002E08B700C7
:100178000030B1000030B0000030AF000030AE00F9
:100188000030C1000030C0000030BF000030BE00A9
:10019800C301182943080319D228D328F3280130AA
:1001A800B2000310B70DB80DB90DBA0DB20BD528B2
:1001B8000130B2000310AE0DAF0DB00DB10DB20B92
:1001C800DE28C11FE828E928EA282E140130B200E9
:1001D8000310BE0DBF0DC00DC10DB20BEC282D08CC
:1001E8003A02031D01292C083902031D01292B0895
:1001F8003802031D01292A083702031C042905298E
:10020800142941172A08B7022B08031C2B0FB80220
:100218002C08031C2C0FB9022D08031C2D0FBA0241
:100228000130B2003208C3071A304302031C1D29EB
:100238001E29CE283A083904380437040319252919
:10024800262945293E1445290130B2000310AE0D78
:10025800AF0DB00DB10DB20B2A29C11F34293529B4
:1002680036292E140130B2000310BE0DBF0DC00D8B
:10027800C10DB20B3829FF30BC070318BD0AFF3087
:10028800BD07B01F482949292829C301C11F4D2985
:100298004E296A29FF303E05B200FF303F05B30002
:1002A800FF304005B4007F304105B50035083404FF
:1002B800330432040319612962296529C301C30A79
:1002C8006A292E1C682969296A29622943080319A1
:1002D8006E296F29A0290130AE07003003180130BC
:1002E800AF07003003180130B007003003180130A1
:1002F800B107311C80298129A0292E08B2002F08B6
:10030800B3003008B4003108B5000130B600350D2F
:10031800B50CB40CB30CB20CB60B8B293508B10074
:100328003408B0003308AF003208AE000130BC0713
:100338000318BD0A0030BD073D08803AFF00803031
:100348007F02031DA929FF303C02031CAC29AD29FB
:10035800BB29FF3083120313BC000030BD000030FE
:10036800B1000030B0000030AF000030AE008312A2
:1003780003133D08803AFF0080307F02031DC62921
:1003880001303C020318C929CA29D729831203134B
:10039800BC01BD010030B1000030B0000030AF003A
:1003A8000030AE00BB01831203133C08B2003208D0
:1003B800C200421CE029E129E329B017E7297F3070
:1003C800B2003208B0054208B2000310320CB30084
:1003D8003308B1003B08B2003208B1048B2808008A
:1003E80083120313A40024080319FB29FC29102AEB
:1003F800F61FFF29002A102A7309A6007409A7000E
:100408007509A8007609A900A60A0319A70A0319FD
:10041800A80A0319A90A182A7608A9007508A800C5
:100428007408A7007308A60076087504740473049A
:10043800031D1F2A202A292A0030F6000030F50063
:100448000030F4000030F300AF2A9630A0002008F6
:10045800A5003B2A0130A0002008A50701300310A1
:10046800A90CA80CA70CA60CFF3E031D332AFE30CE
:100478002905031D402A412A2E2A5D2A0130A000A1
:100488002008A5070130A607003003180130A70788
:10049800003003180130A807003003180130A907FD
:1004A80001300310A90CA80CA70CA60CFF3E031DD5
:1004B800552AFF302905031D622A632A422A6F2A1A
:1004C8000130A5020130A0000310A60DA70DA80D4C
:1004D800A90DA00B682AA81B722A732A792A023050
:1004E80025020318782A792A642A25187C2A7D2A65
:1004F800852AFF30A605FF30A7057F30A805FF3005
:10050800A9050310A50C2508A000A101A201A301BB
:1005180018300310A00DA10DA20DA30DFF3E031D61
:100528008D2A2008A6042108A7042208A804230865
:10053800A90424080319A12AA22AA72AF61FA52A72
:10054800A62AA72AA9172908F6002808F5002708C7
:10055800F4002608F3000800031083120313460D65
:10056800470DC8004808F8007808031DBC2ABD2AB2
:10057800C62A0030C7000030C6000030C500003071
:10058800C4002B2B4408C8004508C9004608CA0007
:100598004708CB001F300310CB0CCA0CC90CC80C81
:1005A800FF3E031DCF2A4808CC004C08F700C617A9
:1005B800FF30C405FF30C505FF30C6050030C7054C
:1005C8009630F802F81FE92AEA2A042B7808803ABC
:1005D800973E0318F02AF12AF22ABD2A01300310A7
:1005E800C70CC60CC50CC40CFF3E031DF32A013012
:1005F800C8004808F807031D022B032BF22A1B2BFF
:1006080020307802031C092B0A2B162BBD2A013037
:10061800C8000310C40DC50DC60DC70DC80B0D2BA2
:100628000130F8027808031D1A2B1B2B0B2B7708B7
:1006380003191F2B202B2B2BC409C509C609C70971
:10064800C40A0319C50A0319C60A0319C70A080008
:10065800831203138C1D312B322B8A2B1412141B7B
:10066800362B372B3B2B941F3A2B3B2B422B130853
:10067800F0007008FA001413941314168316031369
:10068800941A472B482B662B14194B2B4C2B662B93
:10069800831203131308F0007008FA008C11141663
:1006A80083160313141C592B5A2B542B8312031330
:1006B8001308F0007008D200A630F000F00B622B8F
:1006C8000000872B941A692B6A2B872B141D6D2B1E
:1006D8006E2B872B831203131308F0007008FA009F
:1006E800831603131410831203135208930014166D
:1006F800A630F000F00B7E2B0000831603131418AD
:10070800862B872B812B831203138C1172088A0086
:10071800710E8300FE0E7E0E090083120313D201B0
:100728008E018F0186160630F900F90B992B00000F
:10073800831203138612061EA22BA32B9F2B1014C1
:10074800061AA72BA82BA42B10100E08F3000F08CD
:10075800F400F501F60100300A128A11F4210A1298
:100768008A11760883120313B1007508B000740863
:10077800AF007308AE004230AD006B30AC004730BC
:10078800AB00AE30AA000A128A1117200A128A1189
:10079800831203132D08C7002C08C6002B08C500B8
:1007A8002A08C4000A128A11B0220A128A11831276
:1007B80003134408F9007908D20008000A128A11C4
:1007C80030240A128A11033083120313D10008302F
:1007D800D0007630CF00CF0BEF2BD00BEF2BD10B07
:1007E800EF2B0000831203135208CF00D0014F08EB
:1007F800CD005008CE000A128A1191230A128A11DC
:10080800053083120313520203180B2C0C2C182CDE
:1008180086150611033083120313D0009730CF00DA
:10082800CF0B142CD00B142C053083120313520257
:10083800031C1F2C202CE72B86110615033083126E
:100848000313D0009730CF00CF0B282CD00B282CC7
:10085800E72B0A128A110C28831603178801013026
:1008680089008316031306148611061106168612CC
:1008780087110712880183120313850186018701F6
:1008880088018901831603130F140F178F160F168B
:100898008B170B17831203138E018F011008CF39A2
:1008A800103890001013901050300A128A115F24EB
:1008B8000A128A110800F3007308831603139300C1
:1008C8003630831203139400803083160313940088
:1008D80001309100871507168B170B178312031326
:0A08E8008C11831603138C15080011
:04400E00D420FF3F7C
:00000001FF
