:020000040000FA
:060000000A128A11F62F1E
:1007F200F00070088316031393003630831203133C
:100802009400803083160313940001309100871501
:1008120007168B170B17831203138C1183160313FE
:100822008C1508008316031788010130890083168E
:100832000313061486100611871407118801831208
:100842000313850186018701880189018316031339
:100852000F140F178F160F168B170B178312031314
:100862008E018F011008CF391038900010139010AC
:1008720050300A128A11F9230A128A1108000A1248
:100882008A1113240A128A11033083120313CA0035
:100892000830C9007630C800C80B4D2CC90B4D2C4E
:1008A200CA0B4D2C0000831203134E08C800C90165
:1008B2004808C5004908C6000A128A1190240A1283
:1008C2008A11831203134E08880005304E02031862
:1008D2006B2C6C2C782C86140611033083120313B4
:1008E200C9009730C800C80B742CC90B742C053092
:1008F200831203134E02031C7F2C802C452C86107E
:100902000615033083120313C9009730C800C80BC1
:10091200882CC90B882C452C0A128A1100288312B4
:100922000313CE018E018F010715053083120313C5
:10093200C700C70B9A2C9D2C831203130711871C27
:10094200A32CA42CA02C10148718A82CA92CA52CFD
:1009520010100E08F0000F08F100F201F301003050
:100962000A128A115F250A128A117308831203136D
:10097200A7007208A6007108A5007008A400423002
:10098200A3006B30A2004730A100AE30A0000A12D3
:100992008A1119260A128A11831203132308BD0031
:1009A2002208BC002108BB002008BA000A128A11E2
:1009B200E3240A128A11831203133A08C700470874
:1009C200CE0008000310831203133C0D3D0DBE0040
:1009D2003E08C4004408031DEF2CF02CF92C003013
:1009E200BD000030BC000030BB000030BA005E2DFC
:1009F2003A08BE003B08BF003C08C0003D08C100E9
:100A02001F300310C10CC00CBF0CBE0CFF3E031DF7
:100A1200022D3E08C2004208C300BC17FF30BA05CF
:100A2200FF30BB05FF30BC050030BD059630C40267
:100A3200C41F1C2D1D2D372D4408803A973E0318E4
:100A4200232D242D252DF02C01300310BD0CBC0CC0
:100A5200BB0CBA0CFF3E031D262D0130BE003E0822
:100A6200C407031D352D362D252D4E2D2030440271
:100A7200031C3C2D3D2D492DF02C0130BE000310EE
:100A8200BA0DBB0DBC0DBD0DBE0B402D0130C40215
:100A92004408031D4D2D4E2D3E2D43080319522DA2
:100AA200532D5E2DBA09BB09BC09BD09BA0A031947
:100AB200BB0A0319BC0A0319BD0A0800F80078082A
:100AC2000319642D652D792DF31F682D692D792D5C
:100AD2007009FA007109FB007209FC007309FD003C
:100AE200FA0A0319FB0A0319FC0A0319FD0A812DEC
:100AF2007308FD007208FC007108FB007008FA0020
:100B02007308720471047004031D882D892D922DBF
:100B12000030F3000030F2000030F1000030F0004D
:100B2200182E9630F4007408F900A42D0130F40058
:100B32007408F90701300310FD0CFC0CFB0CFA0CD5
:100B4200FF3E031D9C2DFE307D05031DA92DAA2D00
:100B5200972DC62D0130F4007408F9070130FA0709
:100B6200003003180130FB07003003180130FC0786
:100B7200003003180130FD0701300310FD0CFC0C9E
:100B8200FB0CFA0CFF3E031DBE2DFF307D05031D3D
:100B9200CB2DCC2DAB2DD82D0130F9020130F40034
:100BA2000310FA0DFB0DFC0DFD0DF40BD12DFC1BFA
:100BB200DB2DDC2DE22D023079020318E12DE22D2E
:100BC200CD2D7918E52DE62DEE2DFF30FA05FF30FB
:100BD200FB057F30FC05FF30FD050310F90C790899
:100BE200F400F501F601F70118300310F40DF50DCC
:100BF200F60DF70DFF3E031DF62D7408FA04750875
:100C0200FB047608FC047708FD04780803190A2E11
:100C12000B2E102EF31F0E2E0F2E102EFD177D08F9
:100C2200F3007C08F2007B08F1007A08F00008006B
:100C32008312031327088039A8002808B100270867
:100C4200A8002807A9002908B800A61F292E2A2EC5
:100C52002B2E3814380803192F2E302E402E380A26
:100C6200031D342E352E3D2E0030A7000030A60085
:100C72000030A5000030A400A617A701482E0030BE
:100C8200A7000030A6000030A5000030A400230811
:100C92008039A8002808B1062308A8002807A9005F
:100CA2002908B900A21F562E572E582E391439087A
:100CB20003195C2E5D2E6D2E390A031D612E622EE4
:100CC2006A2E0030A3000030A2000030A1000030E4
:100CD200A000A217A301752E0030A3000030A200CD
:100CE2000030A1000030A0002308220421042004C7
:100CF200031D7C2E7D2E962E0030A7000030A6000C
:100D02000030A5000030A4008030A6047F30A70484
:100D12003108A8002808A7042708A3002608A20073
:100D22002508A1002408A000F52F3808031D9A2EDB
:100D32009B2EA42E0030A3000030A2000030A100A0
:100D42000030A000F52F3808A800A9012908AB003F
:100D520039082802AA00031CAB032A087F3EB2000E
:100D62002B080318013E003EB3002708B0002608F6
:100D7200AF002508AE002408AD000030A700003007
:100D8200A6000030A5000030A4000030B7000030FB
:100D9200B6000030B5000030B400B9011A2F39088E
:100DA2000319D42ED52EF52E0130A8000310AD0D57
:100DB200AE0DAF0DB00DA80BD72E0130A800031059
:100DC200A40DA50DA60DA70DA80BE02EB71FEA2EA8
:100DD200EB2EEC2E24140130A8000310B40DB50D37
:100DE200B60DB70DA80BEE2E23083002031D032FFC
:100DF20022082F02031D032F21082E02031D032F99
:100E020020082D02031C062F072F162F3717200844
:100E1200AD022108031C210FAE022208031C220F7F
:100E2200AF022308031C230FB0020130A8002808D8
:100E3200B9071A303902031C1F2F202FD02E300879
:100E42002F042E042D040319272F282F472F341483
:100E5200472F0130A8000310A40DA50DA60DA70D64
:100E6200A80B2C2FB71F362F372F382F2414013001
:100E7200A8000310B40DB50DB60DB70DA80B3A2F8F
:100E8200FF30B2070318B30AFF30B307A61F4A2F79
:100E92004B2F2A2FB901B71F4F2F502F6C2FFF3026
:100EA2003405A800FF303505A900FF303605AA0039
:100EB2007F303705AB002B082A04290428040319C4
:100EC200632F642F672FB901B90A6C2F241C6A2F74
:100ED2006B2F6C2F642F39080319702F712FA22FDB
:100EE2000130A407003003180130A50700300318B1
:100EF2000130A607003003180130A707271C822FF4
:100F0200832FA22F2408A8002508A9002608AA00DA
:100F12002708AB000130AC002B0DAB0CAA0CA90CBE
:100F2200A80CAC0B8D2F2B08A7002A08A6002908B5
:100F3200A5002808A4000130B2070318B30A003044
:100F4200B3073308803AFF0080307F02031DAB2FC6
:100F5200FF303202031CAE2FAF2FBD2FFF308312A2
:100F62000313B2000030B3000030A7000030A60027
:100F72000030A5000030A400831203133308803A26
:100F8200FF0080307F02031DC82F01303202031898
:100F9200CB2FCC2FD92F83120313B201B301003010
:100FA200A7000030A6000030A5000030A400B10167
:100FB200831203133208A8002808B800381CE22F55
:100FC200E32FE52FA617E92F7F30A8002808A605F2
:100FD2003808A8000310280CA9002908A700310826
:100FE200A8002808A7048D2E080083120313CB0142
:0E0FF200CC01CD01CE0183010A128A11402CE0
:04400E00D420FF3F7C
:00000001FF
