:020000040000FA
:060000000A128A110C280F
:10000800FE00030EF1000A08F2000A128A112E2BD4
:100018000A128A110F28F801F901FA018312031351
:10002800D40183010A128A11E42B831203133108C5
:100038008039B2003208BB003108B2003207B30081
:100048003308C200B01F29282A282B284214420846
:1000580003192F2830284028420A031D3428352840
:100068003D280030B1000030B0000030AF00003053
:10007800AE00B017B10148280030B1000030B00020
:100088000030AF000030AE002D088039B2003208D1
:10009800BB062D08B2003207B3003308C300AC1FFB
:1000A8005628572858284314430803195C285D2804
:1000B8006D28430A031D612862286A280030AD00B4
:1000C8000030AC000030AB000030AA00AC17AD0126
:1000D80075280030AD000030AC000030AB000030B7
:1000E800AA002D082C042B042A04031D7C287D2833
:1000F80096280030B1000030B0000030AF0000306A
:10010800AE008030B0047F30B1043B08B200320842
:10011800B1043108AD003008AC002F08AB002E0840
:10012800AA00F5294208031D9A289B28A428003014
:10013800AD000030AC000030AB000030AA00F5295B
:100148004208B200B3013308B50043083202B400D4
:10015800031CB50334087F3EBC0035080318013E74
:10016800003EBD003108BA003008B9002F08B800B9
:100178002E08B7000030B1000030B0000030AF00EA
:100188000030AE000030C1000030C0000030BF00B9
:100198000030BE00C3011A2943080319D428D52802
:1001A800F5280130B2000310B70DB80DB90DBA0D1E
:1001B800B20BD7280130B2000310AE0DAF0DB00D51
:1001C800B10DB20BE028C11FEA28EB28EC282E1449
:1001D8000130B2000310BE0DBF0DC00DC10DB20B32
:1001E800EE282D083A02031D03292C083902031DA5
:1001F80003292B083802031D03292A083702031C88
:1002080006290729162941172A08B7022B08031CB3
:100218002B0FB8022C08031C2C0FB9022D08031C45
:100228002D0FBA020130B2003208C3071A30430258
:10023800031C1F292029D0283A0839043804370418
:1002480003192729282947293E1447290130B200D4
:100258000310AE0DAF0DB00DB10DB20B2C29C11F9F
:100268003629372938292E140130B2000310BE0D63
:10027800BF0DC00DC10DB20B3A29FF30BC070318E2
:10028800BD0AFF30BD07B01F4A294B292A29C301DF
:10029800C11F4F2950296C29FF303E05B200FF309D
:1002A8003F05B300FF304005B4007F304105B5007D
:1002B800350834043304320403196329642967298F
:1002C800C301C30A6C292E1C6A296B296C2964296D
:1002D8004308031970297129A2290130AE0700309B
:1002E80003180130AF07003003180130B0070030A1
:1002F80003180130B107311C82298329A2292E084D
:10030800B2002F08B3003008B4003108B50001303E
:10031800B600350DB50CB40CB30CB20CB60B8D2968
:100328003508B1003408B0003308AF003208AE0019
:100338000130BC070318BD0A0030BD073D08803AEC
:10034800FF0080307F02031DAB29FF303C02031CF5
:10035800AE29AF29BD29FF3083120313BC0000303A
:10036800BD000030B1000030B0000030AF000030F8
:10037800AE00831203133D08803AFF0080307F02ED
:10038800031DC82901303C020318CB29CC29D929DF
:1003980083120313BC01BD010030B1000030B0006E
:1003A8000030AF000030AE00BB01831203133C08DD
:1003B800B2003208C200421CE229E329E529B0173D
:1003C800E9297F30B2003208B0054208B2000310B4
:1003D800320CB3003308B1003B08B2003208B10454
:1003E8008D28080083120313A40024080319FD298B
:1003F800FE29122AF61F012A022A122A7309A600C8
:100408007409A7007509A8007609A900A60A0319A6
:10041800A70A0319A80A0319A90A1A2A7608A9001B
:100428007508A8007408A7007308A6007608750464
:1004380074047304031D212A222A2B2A0030F60093
:100448000030F5000030F4000030F300B12A963097
:10045800A0002008A5003D2A0130A0002008A5071B
:1004680001300310A90CA80CA70CA60CFF3E031D15
:10047800352AFE302905031D422A432A302A5F2ADD
:100488000130A0002008A5070130A6070030031896
:100498000130A707003003180130A80700300318FF
:1004A8000130A90701300310A90CA80CA70CA60C51
:1004B800FF3E031D572AFF302905031D642A652ABC
:1004C800442A712A0130A5020130A0000310A60DAC
:1004D800A70DA80DA90DA00B6A2AA81B742A752AB6
:1004E8007B2A0230250203187A2A7B2A662A2518D5
:1004F8007E2A7F2A872AFF30A605FF30A7057F308E
:10050800A805FF30A9050310A50C2508A000A10126
:10051800A201A30118300310A00DA10DA20DA30D77
:10052800FF3E031D8F2A2008A6042108A7042208DD
:10053800A8042308A90424080319A32AA42AA92A79
:10054800F61FA72AA82AA92AA9172908F600280801
:10055800F5002708F4002608F300080003108312AA
:100568000313460D470DC8004808CE004E08031D6A
:10057800BE2ABF2AC82A0030C7000030C600003093
:10058800C5000030C4002D2B4408C8004508C90028
:100598004608CA004708CB001F300310CB0CCA0C12
:1005A800C90CC80CFF3E031DD12A4808CC004C08D2
:1005B800CD00C617FF30C405FF30C505FF30C6059E
:1005C8000030C7059630CE02CE1FEB2AEC2A062B48
:1005D8004E08803A973E0318F22AF32AF42ABF2AD3
:1005E80001300310C70CC60CC50CC40CFF3E031D1C
:1005F800F52A0130C8004808CE07031D042B052B37
:10060800F42A1D2B20304E02031C0B2B0C2B182B0D
:10061800BF2A0130C8000310C40DC50DC60DC70D93
:10062800C80B0F2B0130CE024E08031D1C2B1D2BAF
:100638000D2B4D080319212B222B2D2BC409C5097D
:10064800C609C709C40A0319C50A0319C60A031942
:10065800C70A0800831203138C1D332B342B8C2BF1
:100668001412141B382B392B3D2B941F3C2B3D2B7C
:10067800442B1308F0007008FA001413941314168E
:1006880083160313941A492B4A2B682B14194D2BE4
:100698004E2B682B831203131308F0007008FA001E
:1006A8008C11141683160313141C5B2B5C2B562B0E
:1006B800831203131308F0007008D400A630F0006A
:1006C800F00B642B0000892B941A6B2B6C2B892B55
:1006D800141D6F2B702B892B831203131308F00042
:1006E8007008FA00831603131410831203135408B6
:1006F80093001416A630F000F00B802B0000831630
:1007080003131418882B892B832B831203138C1142
:1007180072088A00710E8300FE0E7E0E0900831295
:100728000313D4018E018F0186160630F700F70BEC
:100738009B2B0000831203138612061EA42BA52BE5
:10074800A12B1014061AA92BAA2BA62B10100E08E1
:10075800F3000F08F400F501F60100300A128A11BF
:10076800F6210A128A11760883120313B10075085C
:10077800B0007408AF007308AE004230AD006B30B3
:10078800AC004730AB00AE30AA000A128A1119201B
:100798000A128A11831203132D08C7002C08C600F9
:1007A8002B08C5002A08C4000A128A11B2220A12AC
:1007B8008A11831203134408F7007708D40008004D
:1007C8000A128A1134240A128A110330831203137D
:1007D800D3000830D2007630D100D10BF12BD20BE8
:1007E800F12BD30BF12B0000831203135408D10013
:1007F800D2015108CF005208D0000A128A1193235F
:100808000A128A118312031354088800053054020F
:1008180003180F2C102C1C2C86150611033083127C
:100828000313D2009730D100D10B182CD20B182CFF
:100838000530831203135402031C232C242CE92BA8
:1008480086110615033083120313D2009730D100A6
:10085800D10B2C2CD20B2C2CE92B0A128A110C2828
:1008680083160317880101308900831603130614C1
:10087800861106110616861287110712880183123F
:1008880003138501860187018801890183160313F3
:100898000F140F178F160F168B170B1783120313CE
:1008A8008E018F011008CF39103890001013901066
:1008B80050300A128A1163240A128A110800F300C0
:1008C80073088316031393003630831203139400BE
:1008D80080308316031394000130910087150716A2
:1008E8008B170B17831203138C11831603138C15A4
:0208F8000800F6
:04400E00D420FF3F7C
:00000001FF
