:020000040000FA
:060000000A128A110E280D
:10000800FE00030EF3000408F4000A08F5000A12C3
:100018008A15102F0A128A111128F601F701F80122
:1000280083120313EE01EF0183010A128A153F2F91
:100038008312031331088039B6003608BB00310833
:10004800B6003607B7003708C100B01F2C282D2886
:100058002E28411441080319322833284228410A1E
:10006800031D3728382840280030B1000030B00080
:100078000030AF000030AE00B0174A280030B100A1
:100088000030B0000030AF000030AE0035088039D5
:10009800B6003608BB063508B6003607B70037087D
:1000A800BC00B41F582859285A283C143C08031986
:1000B8005E285F286E283C0A031D632864286C2884
:1000C8000030B5000030B4000030B3000030B2009A
:1000D800B41776280030B5000030B4000030B30003
:1000E8000030B2003C0803197A287B288028410890
:1000F800031D7F28802889280030B1000030B00017
:100108000030AF000030AE007C2B2E08B600360859
:10011800A00034080A128A15E7260A128A118312E7
:1001280003132108C7002008C6004608B600B70117
:10013800B801B9013908C0003808BF003708BE0047
:100148003608BD004708B600B701B801B90139083B
:10015800C5003808C4003708C3003608C2002F0895
:10016800B6003608A00033080A128A15E7260A12D4
:100178008A11831203132108C7002008C600460805
:10018800B600B701B801B9013608BD073708031131
:100198000318013E0319D128BE07380803110318B4
:1001A800013E0319D828BF07390803110318013E77
:1001B8000319DF28C0074708B600B701B801B9011D
:1001C8003608C207370803110318013E0319ED2842
:1001D800C307380803110318013E0319F428C4079C
:1001E800390803110318013E0319FB28C507300815
:1001F800B6003608A00032080A128A15E7260A1245
:100208008A11831203132108C7002008C600460874
:10021800B600B701B801B9013608BD0737080311A0
:100228000318013E03191929BE07380803110318DA
:10023800013E03192029BF07390803110318013E9D
:1002480003192729C0074708B600B701B801B90143
:100258003608C207370803110318013E0319352968
:10026800C307380803110318013E03193C29C407C2
:10027800390803110318013E03194329C50708303B
:10028800B6000310BD0DBE0DBF0DC00DB60B452940
:100298002F08B6003608A00032080A128A15E72689
:1002A8000A128A11831203132108C7002008C60006
:1002B8004608B6004708B700B801B9013608BD07B7
:1002C800370803110318013E03196B29BE073808C4
:1002D80003110318013E03197229BF0739080311D6
:1002E8000318013E03197929C0072E08B6003608FD
:1002F800A00033080A128A15E7260A128A11831207
:1003080003132108C7002008C6004608B60047089E
:10031800B700B801B9013608BD073708031103183B
:10032800013E03199829BE07380803110318013E36
:1003380003199F29BF07390803110318013E031940
:10034800A629C0070830B6000310BD0DBE0DBF0DAD
:10035800C00DB60BA8292E08B6003608A000320832
:100368000A128A15E7260A128A1183120313210832
:10037800C7002008C6004608B6004708B700B801FD
:10038800B9013608BD07370803110318013E0319E0
:10039800CE29BE07380803110318013E0319D529D1
:1003A800BF07390803110318013E0319DC29C007E8
:1003B8002F08B6003608A00034080A128A15E72666
:1003C8000A128A11831203132108C7002008C600E5
:1003D8004608B6004708B700B801B9013608C20791
:1003E800370803110318013E0319FB29C30738080E
:1003F80003110318013E0319022AC407390803111F
:100408000318013E0319092AC5073008B600360843
:10041800A00033080A128A15E7260A128A118312E5
:1004280003132108C7002008C6004608B60047087D
:10043800B700B801B9013608C20737080311031815
:10044800013E0319282AC307380803110318013E7F
:1004580003192F2AC407390803110318013E031989
:10046800362AC5073008B6003608A00034080A1234
:100478008A15E7260A128A11831203132108C70076
:100488002008C6004608B6004708B700B801B901F9
:1004980008300310B60DB70DB80DB90DFF3E031D9A
:1004A8004D2A3608C207370803110318013E0319FD
:1004B8005E2AC307380803110318013E0319652A89
:1004C800C407390803110318013E03196C2AC5072C
:1004D8003D08B6003E08B7003F08B8004008B9001C
:1004E80018300310B90CB80CB70CB60CFF3E031D3E
:1004F800752A3608C207370803110318013E031985
:10050800862AC307380803110318013E03198D2AE8
:10051800C407390803110318013E0319942AC507B3
:100528000830B6000310BD0DBE0DBF0DC00DB60BD3
:10053800962A41083C07B600B701B70D3608823E37
:10054800C60037080318013EFF3EC700C82A01301D
:10055800B6000310C20DC30DC40DC50DB60BAD2AF0
:10056800C01FB72AB82AB92A42140130B6000310AE
:10057800BD0DBE0DBF0DC00DB60BBB2AFF30C607A3
:100588000318C70AFF30C707C41FCB2ACC2AAB2AD7
:10059800BC01C01FD02AD12AED2AFF303D05B60084
:1005A800FF303E05B700FF303F05B8007F304005FB
:1005B800B90039083804370436040319E42AE52A4F
:1005C800E82ABC01BC0AED2A421CEB2AEC2AED2AD7
:1005D800E52A3C080319F12AF22A232B0130C20725
:1005E800003003180130C307003003180130C40776
:1005F800003003180130C507451C032B042B232B9F
:100608004208B6004308B7004408B8004508B900D6
:100618000130BA00390DB90CB80CB70CB60CBA0BCE
:100628000E2B3908C5003808C4003708C30036083F
:10063800C2000130C6070318C70A0030C7074708B9
:10064800803AFF0080307F02031D2C2BFF304602CA
:10065800031C2F2B302B3B2B7F3083120313C50039
:100668008030C4000030C3000030C200702B8312F9
:1006780003134708803AFF0080307F02031D462B92
:10068800013046020318492B4A2B562B003083129F
:100698000313C5000030C4000030C3000030C2009E
:1006A800BB01702B831203134608B6003608C1003D
:1006B800FF30C205FF30C3057F30C4050030C505D3
:1006C800411C672B682B692BC4174108B60003101F
:1006D800360CB7003708C5003B08B6003608C50415
:1006E8004508B1004408B0004308AF004208AE0016
:1006F8000800831203134B088039D0005008D80033
:100708004B08D0005007D1005108DA00CA1F8D2BC2
:100718008E2B8F2B5A145A080319932B942BA42B26
:100728005A0A031D982B992BA12B0030CB000030BF
:10073800CA000030C9000030C800CA17CB01AC2B72
:100748000030CB000030CA000030C9000030C800BB
:100758004F088039D0005008D900590858060319A5
:10076800B62BB72BB82B58174F08D0005007D1001D
:100778005108D900CE1FC12BC22BC32B59145908BD
:100788000319C72BC82BD82B590A031DCC2BCD2BEB
:10079800D52B0030CF000030CE000030CD00003027
:1007A800CC00CE17CF01E02B0030CF000030CE00B8
:1007B8000030CD000030CC005A0859020318E52B50
:1007C800E62B2A2C581FE92BEA2BEE2B8030D00081
:1007D8005008D8065A08D0005008DB005908D00045
:1007E8005008DA005B08D0005008D9004808D0004B
:1007F8005008DB004C08D0005008C8005B08D00047
:100808005008CC004908D0005008DB004D08D00043
:100818005008C9005B08D0005008CD004A08D00035
:100828005008DB004E08D0005008CA005B08D00012
:100838005008CE004B08D0005008DB004F08D0000D
:100848005008CB005B08D0005008CF00DB015908E6
:10085800D000D1015108D3005A085002D200031C1D
:10086800D3035308803AFF0080307F02031D3E2CDB
:100878001A305202031C412C422C7F2C8312031382
:100888004B084A0449044804031D4B2C4D2C0130E5
:100898004E2C0030D0005008DB000030CB00003078
:1008A800CA000030C9000030C8005908D0005008FC
:1008B800DA00872C5B1C612C622C6B2C5B08D00047
:1008C8000310500C0138D1005108DB006D2C0310C7
:1008D800DB0C481C702C712C722CDB170130D000FB
:1008E8004B0DCB0CCA0CC90CC80CD00B742C0130A6
:1008F800D0005008DA078312031359085A02031C60
:10090800862C872C5E2C581B8A2C8B2CD62C5A08AC
:10091800031D8F2C902C992C0030CB000030CA007E
:100928000030C9000030C800042E4C08C8074D0824
:1009380003110318013E0319A22CC9074E0803111D
:100948000318013E0319A92CCA074F0803110318FD
:10095800013E0319B02CCB074B1CB32CB42C8A2DA9
:100968005B1CB72CB82CC12C5B08D0000310500CB2
:100978000138D1005108DB00C32C0310DB0C481CE4
:10098800C62CC72CC82CDB170130D0004B0DCB0C64
:10099800CA0CC90CC80CD00BCA2C0130D0005008A6
:1009A800DA078A2D4B08803AFF004F08803A7F0209
:1009B800031DE82C4E084A02031DE82C4D08490285
:1009C800031DE82C4C0848020318EB2CEC2C442D92
:1009D800FF30D000FF30D100FF30D200FF30D3000D
:1009E8004C08D4004D08D5004E08D6004F08D70053
:1009F8004808D4024908031C490F032D042DD502C9
:100A08004A08031C4A0F092D0A2DD6024B08031C5D
:100A18004B0F0F2D102DD7025408D0075508031877
:100A2800550F172D182DD10756080318560F1D2DD1
:100A38001E2DD20757080318570AD3075308CB00AF
:100A48005208CA005108C9005008C8008030D000B8
:100A58005008D806DB09DB0A5B08031D342D352D49
:100A6800522D0130C807003003180130C907003083
:100A780003180130CA07003003180130CB07522D84
:100A88004C08C8024D08031C4D0FC9024E08031C30
:100A98004E0FCA024F08031C4F0FCB024B084A04E3
:100AA80049044804031D592D5A2D862D5B08031D42
:100AB8005E2D5F2D862D0030CB000030CA0000303F
:100AC800C9000030C800042E0130D0000310C80D42
:100AD800C90DCA0DCB0DD00B6A2DDB1F742D752DDA
:100AE800762D48145B1C792D7A2D7D2D0314DB0D92
:100AF8007F2D0310DB0D5A080319832D842D862DB5
:100B08000130DA02CA1F892D8A2D682DD901DB1F11
:100B18008E2D8F2D9D2D5B087F390319942D952DD2
:100B2800982DD901D90A9D2D481C9B2D9C2D9D2DB2
:100B3800952D59080319A12DA22DD62D0130C807CE
:100B4800003003180130C907003003180130CA0704
:100B5800003003180130CB074B1CB32DB42DD62D14
:100B68004808D0004908D1004A08D2004B08D300F1
:100B78000130D400530DD30CD20CD10CD00CD40BB3
:100B8800BE2D5308CB005208CA005108C9005008AE
:100B9800C8005A0A0319D12DD22DD62D0130D00004
:100BA8005008DA075A0A0319DA2DDB2DE02D5A0806
:100BB800031DDF2DE02DEE2D0030CB000030CA00E4
:100BC8000030C9000030C8005A08031DEC2DED2D77
:100BD800EE2DD8015A1CF12DF22DF42DCA17F82D3F
:100BE8007F30D0005008CA055A08D0000310500CB6
:100BF800D1005108CB00D81F022E032E042ECB178C
:100C08000800831203139F180A2E0B2EE32ED02EF2
:100C18006F08E700E801E901EA016A08A30069082A
:100C2800A2006808A1006708A00001300A128A1112
:100C3800E4260A128A11831203132308B500220836
:100C4800B4002108B3002008B2003E30B1007C3067
:100C5800B000ED30AF009130AE000A128A111C20AE
:100C68000A128A11831203133108CF003008CE000C
:100C78002F08CD002E08CC004230CB007830CA00B7
:100C88000030C9000030C8000A128A117D230A12F8
:100C98008A11831203134B08DF004A08DE00490853
:100CA800DD004808DC000A128A1584270A128A1116
:100CB800831203135C0895001F08C33904389F008A
:100CC800413083120313E700E70B682E6B2E831263
:100CD80003139F14E32E7808E700E801E901EA010D
:100CE8006A08A3006908A2006808A1006708A000B4
:100CF80001300A128A11E4260A128A118312031398
:100D08002308B5002208B4002108B3002008B20067
:100D18003E30B1007C30B000ED30AF009130AE0015
:100D28000A128A111C200A128A118312031331082D
:100D3800CF003008CE002F08CD002E08CC0042305E
:100D4800CB007830CA000030C9000030C8000A1251
:100D58008A117D230A128A11831203134B08DF00BC
:100D68004A08DE004908DD004808DC000A128A1536
:100D780084270A128A11831203135C089B00C3306C
:100D88009F05413083120313E700E70BC92ECC2ED1
:100D9800831203139F14E32E1F0CE700670C0F390F
:100DA800E800E9016908003A0319DB2EE32E680818
:100DB800003A03190C2E013A03196F2EE32E08008E
:100DC80083120313A80028080319EB2EEC2E002F1A
:100DD800A31FEF2EF02E002F2009AA002109AB0037
:100DE8002209AC002309AD00AA0A0319AB0A0319AA
:100DF800AC0A0319AD0A082F2308AD002208AC007D
:100E08002108AB002008AA0023082204210420049A
:100E1800031D0F2F102F192F0030A3000030A20040
:100E28000030A1000030A0009F2F9630A4002408B5
:100E3800A9002B2F0130A4002408A90701300310B2
:100E4800AD0CAC0CAB0CAA0CFF3E031D232FFE30DF
:100E58002D05031D302F312F1E2F4D2F0130A400DB
:100E68002408A9070130AA07003003180130AB078E
:100E7800003003180130AC07003003180130AD070B
:100E880001300310AD0CAC0CAB0CAA0CFF3E031DDB
:100E9800452FFF302D05031D522F532F322F5F2F63
:100EA8000130A9020130A4000310AA0DAB0DAC0D4E
:100EB800AD0DA40B582FAC1B622F632F692F023086
:100EC80029020318682F692F542F29186C2F6D2FAA
:100ED800752FFF30AA05FF30AB057F30AC05FF301A
:100EE800AD050310A90C2908A400A501A601A701B6
:100EF80018300310A40DA50DA60DA70DFF3E031D68
:100F08007D2F2408AA042508AB042608AC0427086A
:100F1800AD0428080319912F922F972FA31F952FFF
:100F2800962F972FAD172D08A3002C08A2002B0889
:100F3800A1002A08A00008000330831603178800C0
:100F480089010330831603138500061186110616DE
:100F58008612871007118312031385018601870102
:100F6800880189018B170B17831603130F140F17AA
:100F78008F160F12831203138E018F011008CF39B9
:100F88001038900010139010831603138C148312DA
:100F980003138C1026309200C3309F051F08C339F5
:100FA80004389F00413083120313A100A10BDA2FEC
:100FB800DD2F831603130C17831203130C131F144E
:100FC8001F083F3940389F00831603139F131F12D1
:100FD8009F12FA3092000C308312031397000F30DF
:100FE8009D0050300A128A15CB260A128A11080071
:101D960083120313A0002008831603139300363022
:101DA60083120313940080308316031394000130CA
:101DB6009100871507168B170B17831203138C11C7
:101DC600831603138C15080083120313A800A401BD
:101DD600A5012008A200A3012208A6002308A70047
:101DE600281CF62EF72EFD2E2608A4070318A50A92
:101DF6002708A50701300310A60DA70DFF3E031DFA
:101E0600FE2E0310A80C2808031D0A2F0B2FF32EF5
:101E16002508A1002408A0000800831203130C1F44
:101E2600152F162F352F212F1E08F0007008EF00F2
:101E3600342F1E08F0007008F800342F1F0CF00035
:101E4600700C0F39F100F2017208003A03192C2FB9
:101E5600342F7108003A0319172F013A03191C2F62
:101E6600342F0C138C1075088A0074088400730EC6
:101E76008300FE0E7E0E09000A128A11A0270A129E
:101E86008A150A128A1105260A128A150330831248
:101E96000313ED000830EC007630EB00EB0B512F0E
:101EA600EC0B512FED0B512F00000530831203135D
:101EB6006E0203185F2F602F6C2F861506110330F4
:101EC60083120313EC009730EB00EB0B682FEC0B3F
:101ED600682F0530831203136E02031C732F742FB1
:101EE600442F86110615033083120313EC00973036
:101EF600EB00EB0B7C2FEC0B7C2F442F0A128A1184
:101F06000E280310831203135E0D5F0DE0006008B8
:101F1600E6006608031D902F912F9A2F0030DF00F0
:101F26000030DE000030DD000030DC00FF2F5C08F2
:101F3600E0005D08E1005E08E2005F08E3001F3094
:101F46000310E30CE20CE10CE00CFF3E031DA32F93
:101F56006008E4006408E500DE17FF30DC05FF30AA
:101F6600DD05FF30DE050030DF059630E602E61FB0
:101F7600BD2FBE2FD82F6608803A973E0318C42F70
:101F8600C52FC62F912F01300310DF0CDE0CDD0CA0
:101F9600DC0CFF3E031DC72F0130E0006008E6079A
:101FA600031DD62FD72FC62FEF2F20306602031C16
:101FB600DD2FDE2FEA2F912F0130E0000310DC0D1C
:101FC600DD0DDE0DDF0DE00BE12F0130E6026608C8
:101FD600031DEE2FEF2FDF2F65080319F32FF42FC4
:101FE600FF2FDC09DD09DE09DF09DC0A0319DD0A3A
:0A1FF6000319DE0A0319DF0A0800D0
:04400E00D420FF3F7C
:00000001FF
