:020000040000FA
:060000000A128A110C280F
:10000800FE00030EF1000A08F2000A128A112F2BD3
:100018000A128A110F28F801F901FA018312031351
:10002800D401D50183010A128A11EA2B8312031322
:1000380031088039B2003208BB003108B2003207FB
:10004800B3003308C200B01F2A282B282C284214DA
:1000580042080319302831284128420A031D35284F
:1000680036283E280030B1000030B0000030AF0024
:100078000030AE00B017B10149280030B10000309F
:10008800B0000030AF000030AE002D088039B2005B
:100098003208BB062D08B2003207B3003308C3008C
:1000A800AC1F5728582859284314430803195D28BA
:1000B8005E286E28430A031D622863286B280030D7
:1000C800AD000030AC000030AB000030AA00AC1727
:1000D800AD0176280030AD000030AC000030AB0038
:1000E8000030AA002D082C042B042A04031D7D28A7
:1000F8007E2897280030B1000030B0000030AF00F3
:100108000030AE008030B0047F30B1043B08B2004C
:100118003208B1043108AD003008AC002F08AB003C
:100128002E08AA00F6294208031D9B289C28A5280A
:100138000030AD000030AC000030AB000030AA0049
:10014800F6294208B200B3013308B5004308320269
:10015800B400031CB50334087F3EBC0035080318FF
:10016800013E003EBD003108BA003008B9002F0832
:10017800B8002E08B7000030B1000030B0000030E1
:10018800AF000030AE000030C1000030C0000030C9
:10019800BF000030BE00C3011B2943080319D5283E
:1001A800D628F6280130B2000310B70DB80DB90DE6
:1001B800BA0DB20BD8280130B2000310AE0DAF0D46
:1001C800B00DB10DB20BE128C11FEB28EC28ED28CA
:1001D8002E140130B2000310BE0DBF0DC00DC10DAD
:1001E800B20BEF282D083A02031D04292C08390206
:1001F800031D04292B083802031D04292A08370285
:10020800031C07290829172941172A08B7022B08B0
:10021800031C2B0FB8022C08031C2C0FB9022D0845
:10022800031C2D0FBA020130B2003208C3071A307E
:100238004302031C20292129D1283A08390438040B
:10024800370403192829292948293E144829013047
:10025800B2000310AE0DAF0DB00DB10DB20B2D29CC
:10026800C11F3729382939292E140130B20003104B
:10027800BE0DBF0DC00DC10DB20B3B29FF30BC0731
:100288000318BD0AFF30BD07B01F4B294C292B2985
:10029800C301C11F502951296D29FF303E05B20005
:1002A800FF303F05B300FF304005B4007F30410503
:1002B800B500350834043304320403196429652968
:1002C8006829C301C30A6D292E1C6B296C296D2965
:1002D80065294308031971297229A3290130AE073A
:1002E800003003180130AF07003003180130B007A1
:1002F800003003180130B107311C83298429A32950
:100308002E08B2002F08B3003008B4003108B50039
:100318000130B600350DB50CB40CB30CB20CB60BED
:100328008E293508B1003408B0003308AF00320810
:10033800AE000130BC070318BD0A0030BD073D08F8
:10034800803AFF0080307F02031DAC29FF303C0259
:10035800031CAF29B029BE29FF3083120313BC0048
:100368000030BD000030B1000030B0000030AF00F8
:100378000030AE00831203133D08803AFF0080303E
:100388007F02031DC92901303C020318CC29CD295D
:10039800DA2983120313BC01BD010030B10000301B
:1003A800B0000030AF000030AE00BB018312031371
:1003B8003C08B2003208C200421CE329E429E629BD
:1003C800B017EA297F30B2003208B0054208B200FF
:1003D8000310320CB3003308B1003B08B2003208F6
:1003E800B1048E28080083120313A40024080319FB
:1003F800FE29FF29132AF61F022A032A132A730942
:10040800A6007409A7007509A8007609A900A60A1C
:100418000319A70A0319A80A0319A90A1B2A7608A7
:10042800A9007508A8007408A7007308A600760834
:10043800750474047304031D222A232A2C2A00300D
:10044800F6000030F5000030F4000030F300B22A66
:100458009630A0002008A5003E2A0130A000200800
:10046800A50701300310A90CA80CA70CA60CFF3E89
:10047800031D362AFE302905031D432A442A312A42
:10048800602A0130A0002008A5070130A607003027
:1004980003180130A707003003180130A8070030FF
:1004A80003180130A90701300310A90CA80CA70CE8
:1004B800A60CFF3E031D582AFF302905031D652A97
:1004C800662A452A722A0130A5020130A0000310CD
:1004D800A60DA70DA80DA90DA00B6B2AA81B752AA0
:1004E800762A7C2A0230250203187B2A7C2A672A6E
:1004F80025187F2A802A882AFF30A605FF30A705FD
:100508007F30A805FF30A9050310A50C2508A00019
:10051800A101A201A30118300310A00DA10DA20D85
:10052800A30DFF3E031D902A2008A6042108A70456
:100538002208A8042308A90424080319A42AA52A20
:10054800AA2AF61FA82AA92AAA2AA9172908F6005A
:100558002808F5002708F4002608F300080003100F
:1005680083120313460D470DC8004808CE004E08F5
:10057800031DBF2AC02AC92A0030C7000030C600A0
:100588000030C5000030C4002E2B4408C8004508C0
:10059800C9004608CA004708CB001F300310CB0C1F
:1005A800CA0CC90CC80CFF3E031DD22A4808CC004F
:1005B8004C08CD00C617FF30C405FF30C505FF3015
:1005C800C6050030C7059630CE02CE1FEC2AED2AAC
:1005D800072B4E08803A973E0318F32AF42AF52A87
:1005E800C02A01300310C70CC60CC50CC40CFF3E52
:1005F800031DF62A0130C8004808CE07031D052B45
:10060800062BF52A1E2B20304E02031C0C2B0D2B1B
:10061800192BC02A0130C8000310C40DC50DC60D22
:10062800C70DC80B102B0130CE024E08031D1D2B21
:100638001E2B0E2B4D080319222B232B2E2BC409FE
:10064800C509C609C709C40A0319C50A0319C60A90
:100658000319C70A0800831203138C1D342B352B8A
:10066800922B1412141B392B3A2B3E2B941F3D2B23
:100678003E2B452B1308F0007008D4001413941374
:10068800141683160313941A4A2B4B2B6F2B141929
:100698004E2B4F2B6F2B831203131308F000700897
:1006A800D4008C11141683160313141C5C2B5D2BB9
:1006B800572B831203131308F0007008D500A630D7
:1006C800F000F00B652B0000831203131308F000F1
:1006D8007008F900902B941A722B732B902B141D11
:1006E800762B772B902B831203131308F0007008D6
:1006F800D4008316031314108312031355089300B0
:100708001416A630F000F00B872B00008316031395
:1007180014188F2B902B8A2B83128C1172088A0045
:10072800710E8300FE0E7E0E090083120313D5019D
:100738008E018F0107150630F700F70BA12B00007B
:10074800831203130711871CAA2BAB2BA72B10149A
:100758008718AF2BB02BAC2B10100E08F3000F0826
:10076800F400F501F60100300A128A11F7210A1285
:100778008A11760883120313B1007508B000740853
:10078800AF007308AE004230AD006B30AC004730AC
:10079800AB00AE30AA000A128A111A200A128A1176
:1007A800831203132D08C7002C08C6002B08C500A8
:1007B8002A08C4000A128A11B3220A128A11831263
:1007C80003134408F7007708D50008000A128A11B5
:1007D80038240A128A11033083120313D300083015
:1007E800D2007630D100D10BF72BD20BF72BD30BDD
:1007F800F72B0000831203135508D100D2015108CA
:10080800CF005208D0000A128A1199230A128A11BD
:1008180005308312031355020318132C142C202CB3
:1008280086140611033083120313D2009730D100C7
:10083800D10B1C2CD20B1C2C053083120313550230
:10084800031C272C282CEF2B861006150330831247
:100858000313D2009730D100D10B302CD20B302C9F
:10086800EF2B0A128A110C288316031788018901B5
:100878008316031307118714861006118801831243
:1008880003138501860187018801890183160313F3
:100898000F140F178F160F168B170B1783120313CE
:1008A8008E018F011008CF39103890001013901066
:1008B80050300A128A1163240A128A110800F300C0
:1008C80073088316031393003630831203139400BE
:1008D80080308316031394000130910087150716A2
:1008E8008B170B17831203138C11831603138C15A4
:0208F8000800F6
:04400E00D420FF3F7C
:00000001FF
