:020000040000FA
:060000000A128A11D72F3D
:10000A00F601F31F09280A281128F209F309F20A4E
:10001A000319F30AF601F60AF11F142815281A28FB
:10002A00F009F109F00A0319F10A700871040319B9
:10003A001F2820284F28F501F50A2E280130031021
:10004A00F00DF10DFF3E031D24280130F400740861
:10005A00F507F11F31283228232871087302031D7E
:10006A00382870087202031C3B283C284228700872
:10007A00F2027108031CF303F30201300310F10CBE
:10008A00F00CFF3E031D43280130F502031D4E28E4
:10009A004F28322876080319532854285928F20978
:1000AA00F309F20A0319F30A7308F1007208F0005F
:1000BA000800F80078080319632864287828F31FD1
:1000CA006728682878287009FA007109FB00720904
:1000DA00FC007309FD00FA0A0319FB0A0319FC0A5A
:1000EA000319FD0A80287308FD007208FC007108D4
:1000FA00FB007008FA007308720471047004031D8F
:10010A008728882891280030F3000030F200003058
:10011A00F1000030F00017299630F4007408F90055
:10012A00A3280130F4007408F90701300310FD0C0C
:10013A00FC0CFB0CFA0CFF3E031D9B28FE307D05D0
:10014A00031DA828A9289628C5280130F400740898
:10015A00F9070130FA07003003180130FB070030B5
:10016A0003180130FC07003003180130FD07013085
:10017A000310FD0CFC0CFB0CFA0CFF3E031DBD2802
:10018A00FF307D05031DCA28CB28AA28D7280130AD
:10019A00F9020130F4000310FA0DFB0DFC0DFD0D00
:1001AA00F40BD028FC1BDA28DB28E128023079027C
:1001BA000318E028E128CC287918E428E528ED2856
:1001CA00FF30FA05FF30FB057F30FC05FF30FD05E7
:1001DA000310F90C7908F400F501F601F70118305B
:1001EA000310F40DF50DF60DF70DFF3E031DF5286E
:1001FA007408FA047508FB047608FC047708FD0401
:10020A007808031909290A290F29F31F0D290E292C
:10021A000F29FD177D08F3007C08F2007B08F10026
:10022A007A08F0000800831203134808BD00470843
:10023A00BC004608BB004508BA000A128A15E02429
:10024A000A128A11831203133A08CA004A08D30011
:10025A005308CA00CB01CC01CD014D08F3004C086C
:10026A00F2004B08F1004A08F00000300A128A1125
:10027A005E200A128A11730883120313AB007208F4
:10028A00AA007108A9007008A8004808AF0047082A
:10029A00AE004608AD004508AC000A128A15952240
:1002AA000A128A11831203132B08D1002A08D000DC
:1002BA002908CF002808CE005108A7005008A60038
:1002CA004F08A5004E08A4004230A300C830A2007F
:1002DA000030A1000030A0000A128A1176240A1206
:1002EA008A11831203132308BD002208BC002108C7
:1002FA00BB002008BA000A128A15E0240A128A11E1
:10030A00831203133A08CA004A08D2005430CA00BA
:10031A004A08F9005530CB004B08FA005630CC0099
:10032A004C08FB0053080A128A155C250A128A1126
:10033A00831203135408CA004908033E84004A087A
:10034A00831380005508CA004908043E84004A08FD
:10035A0080005608CA004908053E84004A08800001
:10036A005430CA004A08F9005530CB004B08FA004D
:10037A005630CC004C08FB0052080A128A155C253C
:10038A000A128A11831203135408CA004908023E4A
:10039A0084004A08831380005508CA00490A840069
:1003AA004A0880005608CA00490884004A088000A2
:1003BA0008007308803983120313A0002008F8008C
:1003CA007308A0002007A1002108FA00F21FEE29F5
:1003DA00EF29F0297A147A080319F429F529052A4C
:1003EA007A0A031DF929FA29022A0030F30000309B
:1003FA00F2000030F1000030F000F217F3010D2A8C
:10040A000030F3000030F2000030F1000030F0005C
:10041A0077088039A0002008F900790878060319BE
:10042A00172A182A192A78177708A0002007A10086
:10043A002108F900F61F222A232A242A7914790886
:10044A000319282A292A392A790A031D2D2A2E2A2C
:10045A00362A0030F7000030F6000030F500003090
:10046A00F400F617F701412A0030F7000030F600D1
:10047A000030F5000030F4007A0879020318462AA1
:10048A00472A8B2A781F4A2A4B2A4F2A8030A000F3
:10049A002008F8067A08A0002008FB007908A000C6
:1004AA002008FA007B08A0002008F9007008A000C4
:1004BA002008FB007408A0002008F0007B08A000B8
:1004CA002008F4007108A0002008FB007508A000AD
:1004DA002008F1007B08A0002008F5007208A0009F
:1004EA002008FB007608A0002008F2007B08A00084
:1004FA002008F6007308A0002008FB007708A00077
:10050A002008F3007B08A0002008F700FB01790807
:10051A00A000A1012108A3007A082002A200031C5E
:10052A00A3032308803AFF0080307F02031D9F2A1D
:10053A001A302202031CA22AA32AE42A730872048C
:10054A0071047004031DAA2AAC2A0130AD2A0030B6
:10055A0083120313A0002008FB000030F3000030D0
:10056A00F2000030F1000030F0007908A000200805
:10057A00FA00EA2A7B1CC22AC32ACE2A7B088312E3
:10058A000313A0000310200C0138A1002108FB006E
:10059A00D02A0310FB0C701CD32AD42AD52AFB17A5
:1005AA00013083120313A000730DF30CF20CF10C4B
:1005BA00F00CA00BD92A0130A0002008FA0779080C
:1005CA007A02031CE92AEA2ABF2A781BED2AEE2AB4
:1005DA003D2B7A08031DF22AF32AFC2A0030F30085
:1005EA000030F2000030F1000030F000752C740881
:1005FA00F007750803110318013E0319052BF107CB
:10060A00760803110318013E03190C2BF207770829
:10061A0003110318013E0319132BF307731C162B3E
:10062A00172BF52B7B1C1A2B1B2B262B7B088312D3
:10063A000313A0000310200C0138A1002108FB00BD
:10064A00282B0310FB0C701C2B2B2C2B2D2BFB1790
:10065A00013083120313A000730DF30CF20CF10C9A
:10066A00F00CA00B312B0130A0002008FA07F52B63
:10067A007308803AFF007708803A7F02031D4F2BE8
:10068A0076087202031D4F2B75087102031D4F2B4A
:10069A00740870020318522B532BAD2BFF308312B0
:1006AA000313A000FF30A100FF30A200FF30A30017
:1006BA007408A4007508A5007608A6007708A700A4
:1006CA007008A4027108031C710F6C2B6D2BA50214
:1006DA007208031C720F722B732BA6027308031C79
:1006EA00730F782B792BA7022408A0072508031873
:1006FA00250F802B812BA10726080318260F862B8E
:10070A00872BA20727080318270AA3072308F30041
:10071A002208F2002108F1002008F0008030A00031
:10072A002008F806FB09FB0A7B08031D9D2B9E2B5C
:10073A00BB2B0130F007003003180130F1070030FD
:10074A0003180130F207003003180130F307BB2BFE
:10075A007408F0027508031C750FF1027608031C71
:10076A00760FF2027708031C770FF30273087204FC
:10077A0071047004031DC22BC32BF12B7B08031DCC
:10078A00C72BC82BF12B0030F3000030F2000030E9
:10079A00F1000030F000752C013083120313A00021
:1007AA000310F00DF10DF20DF30DA00BD52BFB1F6D
:1007BA00DF2BE02BE12B70147B1CE42BE52BE82BC1
:1007CA000314FB0DEA2B0310FB0D7A080319EE2B19
:1007DA00EF2BF12B0130FA02F21FF42BF52BD12B60
:1007EA00F901FB1FF92BFA2B082C7B087F39031917
:1007FA00FF2B002C032CF901F90A082C701C062C7B
:10080A00072C082C002C790803190C2C0D2C432CCE
:10081A000130F007003003180130F10700300318E7
:10082A000130F207003003180130F307731C1E2C45
:10083A001F2C432C700883120313A0007108A10017
:10084A007208A2007308A3000130A400230DA30CB0
:10085A00A20CA10CA00CA40B2B2C2308F300220839
:10086A00F2002108F1002008F0007A0A03193E2C50
:10087A003F2C432C0130A0002008FA077A0A0319FA
:10088A00472C482C4D2C7A08031D4C2C4D2C5B2CE4
:10089A000030F3000030F2000030F1000030F000C8
:1008AA007A08031D592C5A2C5B2CF8017A1C5E2CF1
:1008BA005F2C612CF217672C7F3083120313A00080
:1008CA002008F2057A0883120313A0000310200CF3
:1008DA00A1002108F300F81F732C742C752CF31750
:1008EA0008008312031323088039A8002808AD00E2
:1008FA002308A8002807A9002908B300A21F862CEC
:10090A00872C882C3314330803198C2C8D2C9C2C9F
:10091A00330A031D912C922C9A2C0030A30000302C
:10092A00A2000030A1000030A000A217A42C0030C1
:10093A00A3000030A2000030A1000030A000270868
:10094A008039A8002808AD062708A8002807A900AA
:10095A002908B200A61FB22CB32CB42C32143208C8
:10096A000319B82CB92CC82C320A031DBD2CBE2C75
:10097A00C62C0030A7000030A6000030A5000030C9
:10098A00A400A617D02C0030A7000030A600003023
:10099A00A5000030A40032080319D42CD52CDA2C77
:1009AA003308031DD92CDA2CE32C0030A3000030C5
:1009BA00A2000030A1000030A000D62F2008A80015
:1009CA002808F00026080A128A15DF220A128A115C
:1009DA00710883120313B9007008B8003808A80018
:1009EA00A901AA01AB012B08B1002A08B000290805
:1009FA00AF002808AE003908A800A901AA01AB0176
:100A0A002B08B7002A08B6002908B5002808B40040
:100A1A002108A8002808F00025080A128A15DF22F2
:100A2A000A128A11710883120313B9007008B800F8
:100A3A003808A800A901AA01AB012808AE072908AD
:100A4A0003110318013E03192B2DAF072A080311BE
:100A5A000318013E0319322DB0072B08031103189E
:100A6A00013E0319392DB1073908A800A901AA01C5
:100A7A00AB012808B407290803110318013E03191A
:100A8A00472DB5072A0803110318013E03194E2DF5
:100A9A00B6072B0803110318013E0319552DB70792
:100AAA002208A8002808F00024080A128A15DF2262
:100ABA000A128A11710883120313B9007008B80068
:100ACA003808A800A901AA01AB012808AE0729081D
:100ADA0003110318013E0319732DAF072A080311E6
:100AEA000318013E03197A2DB0072B0803110318C6
:100AFA00013E0319812DB1073908A800A901AA01ED
:100B0A00AB012808B407290803110318013E031989
:100B1A008F2DB5072A0803110318013E0319962DD4
:100B2A00B6072B0803110318013E03199D2DB707B9
:100B3A000830A8000310AE0DAF0DB00DB10DA80B13
:100B4A009F2D2108A8002808F00024080A128A15F7
:100B5A00DF220A128A11710883120313B90070087E
:100B6A00B8003808A8003908A900AA01AB0128086A
:100B7A00AE07290803110318013E0319C52DAF0753
:100B8A002A0803110318013E0319CC2DB0072B08BC
:100B9A0003110318013E0319D32DB1072008A80039
:100BAA002808F00025080A128A15DF220A128A117B
:100BBA00710883120313B9007008B8003808A80036
:100BCA003908A900AA01AB012808AE0729080311B0
:100BDA000318013E0319F22DAF072A08031103185F
:100BEA00013E0319F92DB0072B0803110318013E22
:100BFA000319002EB1070830A8000310AE0DAF0D7F
:100C0A00B00DB10DA80B022E2008A8002808F0008C
:100C1A0024080A128A15DF220A128A11710883121D
:100C2A000313B9007008B8003808A8003908A900E9
:100C3A00AA01AB012808AE07290803110318013ECF
:100C4A000319282EAF072A0803110318013E0319B6
:100C5A002F2EB0072B0803110318013E0319362E55
:100C6A00B1072108A8002808F00026080A128A15E8
:100C7A00DF220A128A11710883120313B90070085D
:100C8A00B8003808A8003908A900AA01AB01280849
:100C9A00B407290803110318013E0319552EB50795
:100CAA002A0803110318013E03195C2EB6072B0804
:100CBA0003110318013E0319632EB7072208A8007F
:100CCA002808F00025080A128A15DF220A128A115A
:100CDA00710883120313B9007008B8003808A80015
:100CEA003908A900AA01AB012808B4072908031189
:100CFA000318013E0319822EB5072A0803110318A7
:100D0A00013E0319892EB6072B0803110318013E69
:100D1A000319902EB7072208A8002808F000260811
:100D2A000A128A15DF220A128A1171088312031322
:100D3A00B9007008B8003808A8003908A900AA0143
:100D4A00AB0108300310A80DA90DAA0DAB0DFF3E8B
:100D5A00031DA72E2808B407290803110318013E0A
:100D6A000319B82EB5072A0803110318013E0319FF
:100D7A00BF2EB6072B0803110318013E0319C62E0E
:100D8A00B7072E08A8002F08A9003008AA003108C2
:100D9A00AB0018300310AB0CAA0CA90CA80CFF3E30
:100DAA00031DCF2E2808B407290803110318013E92
:100DBA000319E02EB5072A0803110318013E031987
:100DCA00E72EB6072B0803110318013E0319EE2E6E
:100DDA00B7070830A8000310AE0DAF0DB00DB10D66
:100DEA00A80BF02E33083207A800A901A90D28087C
:100DFA00823EB80029080318013EFF3EB900222F9F
:100E0A000130A8000310B40DB50DB60DB70DA80B2F
:100E1A00072FB11F112F122F132F34140130A800DE
:100E2A000310AE0DAF0DB00DB10DA80B152FFF308D
:100E3A00B8070318B90AFF30B907B61F252F262F9E
:100E4A00052FB201B11F2A2F2B2F472FFF302E0556
:100E5A00A800FF302F05A900FF303005AA007F3017
:100E6A003105AB002B082A042904280403193E2F54
:100E7A003F2F422FB201B20A472F341C452F462F6B
:100E8A00472F3F2F320803194B2F4C2F7D2F01304C
:100E9A00B407003003180130B507003003180130D9
:100EAA00B607003003180130B707371C5D2F5E2FD5
:100EBA007D2F3408A8003508A9003608AA0037088B
:100ECA00AB000130AC002B0DAB0CAA0CA90CA80C82
:100EDA00AC0B682F2B08B7002A08B6002908B50002
:100EEA002808B4000130B8070318B90A0030B90756
:100EFA003908803AFF0080307F02031D862FFF30B9
:100F0A003802031C892F8A2F952F7F3083120313EF
:100F1A00B7008030B6000030B5000030B400CA2FE8
:100F2A00831203133908803AFF0080307F02031DC1
:100F3A00A02F013038020318A32FA42FB02F00309E
:100F4A0083120313B7000030B6000030B50000303A
:100F5A00B400AD01CA2F831203133808A800280869
:100F6A00B300FF30B405FF30B5057F30B605003059
:100F7A00B705331CC12FC22FC32FB6173308A800D9
:100F8A000310280CA9002908B7002D08A800280872
:100F9A00B7043708A3003608A2003508A1003408B0
:100FAA00A00008008313BE30FD000A30FE00333073
:100FBA00FF00A03084000A128A15E0210A128A1161
:100FCA0083160313BE01BF01C001C101C201C301DF
:100FDA0083120313E001E101E201E301E401E50107
:100FEA00E601E701E801E901EA01EB01EC0183010D
:100FFA000A128A15D92DFF1B0A2883137F18831713
:10100A000008840A0319FF0A080008308A00040845
:10101A00840A820700344534523452344F345234ED
:02102A00003490
:101332000A128A15BF210A128A1583160313911401
:1013420008000A128A15BF210A128A15831603138E
:10135200111408000A128A15BF210A128A1583166F
:10136200031311150800F0000A128A15BF210A1290
:101372008A1570088312031393000800831603135F
:101382001419C429C529BF2911081F39031DCA29E7
:10139200CB29BF290800F1008312031389147108B5
:1013A200880009151A30F000F00BD52900008312CD
:1013B2000313091108007E088A007F0882000A12BE
:1013C2008A15DC210A128A158000840A04087D0627
:1013D20003190034FF0A0319FE0AE029F2008312FE
:1013E200031389107208880009150B30F10062306E
:1013F200F000F00BFA29F10BFA2900008312031313
:1014020009110800F300F201731C082A092A0D2AA7
:101412007008F1007108F2070310F00D0310F30CCD
:101422007308031D152A162A052A72080800831656
:10143200031309108312031309104130F100EE3037
:10144200F000F00B222AF10B222A00008312031370
:1014520009141030F000F00B2C2A0000831603133D
:1014620009140800523448342034203420343D34E6
:101472002034303430342E34303420342534203487
:101482000034543445344D34503420343D34203407
:10149200303430342E343034203443342034003469
:1014A200F1000A128A15BF210A128A158316031344
:1014B20091150A128A15BF210A128A158312031383
:1014C2001308F000710884007008831380000A1268
:1014D2008A15BF210A128A15831603139116111653
:1014E2000800F5007503031D772A782A832A7308FA
:1014F2007F3EF4007408F60076080A128A15EF217E
:101502000A128A1502307506031D882A892A942A2E
:101512007308BF3EF4007408F60076080A128A15B2
:10152200EF210A128A150800803083120313AB06DA
:101532002F08F3002E08F2002D08F1002C08F0000D
:101542002B08F7002A08F6002908F5002808F400FD
:101552000A128A11DE210A128A15730883120313F2
:10156200AB007208AA007108A9007008A800080060
:10157200CE2A7308FF00720884000A128A1500201E
:101582000A128A150A128A15CC210A128A1501300A
:10159200F2070318F30A0030F307730883120313E8
:1015A200FF00720884000A128A1500200A128A15A6
:1015B200003A031DDD2ADE2ABA2A0800F800F401E7
:1015C200F5017008F200F3017208F6007308F700E3
:1015D200781CEC2AED2AF32A7608F4070318F50A98
:1015E2007708F50701300310F60DF70DFF3E031DD6
:1015F200F42A0310F80C7808031D002B012BE92AAA
:101602007508F1007408F0000800831603178801BA
:101612008901831603138501860188018910091146
:101622008312031385018601880170308316031328
:101632008F040F1410308312031390008F018E0158
:101642000030A3000130A2008630A100A030A0002B
:101652000A128A1590230A128A15080083120313AC
:101662008F018E0110140918372B382B3E2B643052
:101672000E02031C3D2B3E2B342B64300E02031C46
:10168200432B442B462B00305A2B8F018E01091C11
:101692004B2B4C2B522B64300E02031C512B522B22
:1016A200482B64300E02031C572B582B592B442B0A
:1016B20001300800F3007308840083138001F201F3
:1016C20083120313091C662B672B612B8F018E017A
:1016D20009186C2B6D2B692B33300E02031C722BF5
:1016E200732B852B0130F0007208073C013E7B2BE7
:1016F2000310F00DFF3E031D792B7008F1007308F3
:1017020084007108831380040130F0007008F2072E
:1017120008307202031C8E2B8F2B612B080028309D
:1017220083120313940083160313910180309400F3
:10173200831203132008A4002108A5002208A60092
:101742002308A70002300310A40DA50DA60DA70DB6
:10175200FF3E031DA42B2708F3002608F2002508EC
:10176200F1002408F0000030F7007A30F600123061
:10177200F5000030F4000A128A1513240A128A15A1
:101782007008FF3E8316031393008715071608009F
:1017920083120313891088018230F400DD30F300D4
:1017A200F30BD12BF40BD12BD62B30300A128A1526
:1017B200EF210A128A150D30F400FB30F300F30B0F
:1017C200E02BF40BE02BE52B30300A128A15EF21C7
:1017D2000A128A150D30F400FB30F300F30BEF2BE5
:1017E200F40BEF2BF42B30300A128A15EF210A1278
:1017F2008A1538300A128A15EF210A128A15063024
:101802000A128A15EF210A128A150C300A128A1559
:10181200EF210A128A1501300A128A15EF210A12E3
:101822008A1508000030FC000030FB000030FA008E
:101832000030F90073087204710470040319222C39
:10184200232C702CFD01FD0A332C0130F80003100B
:10185200F00DF10DF20DF30DF80B282C0130F8000C
:101862007808FD07F31F362C372C262C0130F800A0
:101872000310F90DFA0DFB0DFC0DF80B392C730852
:101882007702031D4E2C72087602031D4E2C71083E
:101892007502031D4E2C70087402031C512C522C2D
:1018A200612C7008F4027108031C710FF5027208B2
:1018B200031C720FF6027308031C730FF7027914EC
:1018C20001300310F30CF20CF10CF00CFF3E031D7F
:1018D200622C0130FD02031D6F2C702C372C7C080A
:1018E200F3007B08F2007A08F1007908F0000800A2
:1018F200F601F11F7D2C7E2C852CF009F109F00AEE
:101902000319F10AF601F60AF31F882C892C922C8E
:10191200F209F309F20A0319F30A0130F400740818
:10192200F606F701F801700871040319992C9A2C34
:10193200D12CF501F50AA82C01300310F00DF10DA0
:10194200FF3E031D9E2C0130F4007408F507F11FC1
:10195200AB2CAC2C9D2C01300310F70DF80DFF3E83
:10196200031DAD2C71087302031DB92C700872029D
:10197200031CBC2CBD2CC42C7008F2027108031C81
:10198200F303F302771401300310F10CF00CFF3E65
:10199200031DC52C0130F502031DD02CD12CAC2C1B
:1019A20076080319D52CD62CDB2CF709F809F70A8F
:1019B2000319F80A7808F1007708F000080003100C
:1019C200831203133C0D3D0DBE003E08C4004408C3
:1019D200031DEC2CED2CF62C0030BD000030BC00B9
:1019E2000030BB000030BA005B2D3A08BE003B0855
:1019F200BF003C08C0003D08C1001F300310C10CED
:101A0200C00CBF0CBE0CFF3E031DFF2C3E08C200E3
:101A12004208C300BC17FF30BA05FF30BB05FF30D8
:101A2200BC050030BD059630C402C41F192D1A2D05
:101A3200342D4408803A973E0318202D212D222D63
:101A4200ED2C01300310BD0CBC0CBB0CBA0CFF3EDC
:101A5200031D232D0130BE003E08C407031D322D95
:101A6200332D222D4B2D20304402031C392D3A2DCB
:101A7200462DED2C0130BE000310BA0DBB0DBC0D7E
:101A8200BD0DBE0B3D2D0130C4024408031D4A2D7D
:101A92004B2D3B2D430803194F2D502D5B2DBA09B9
:101AA200BB09BC09BD09BA0A0319BB0A0319BC0A5E
:101AB2000319BD0A0800FC007C0883120313A0006E
:101AC2002008FD0079088400831380017A088400CD
:101AD20080017B0884008001992D6430F000003081
:101AE200F1007D08A000A1012008F2002108F30006
:101AF2000A128A1579240A128A15700883120313AE
:101B0200A2007B0884002208831380009C30A0007E
:101B12002008F0007B08840000080A128A150322BC
:101B22000A128A157D0783120313A1002108FD0002
:101B320064307D0203189E2D9F2D6E2DCB2D0A3011
:101B4200F0000030F1007D08A000A1012008F200A1
:101B52002108F3000A128A1579240A128A157008DC
:101B620083120313A2007A088400220883138000E0
:101B7200F630A0002008F0007A08840000080A125B
:101B82008A1503220A128A157D0783120313A10004
:101B92002108FD000A307D020318D02DD12DA02D81
:101BA2007D08A000790884002008831380000800C3
:101BB2000A128A1506230A128A15831203138F0149
:101BC2008E010A128A15C9230A128A150A128A1567
:101BD200A2210A128A1590300A128A15B4210A1219
:101BE2008A1501300A128A15B4210A128A150230A6
:101BF2000A128A15B4210A128A150A128A15AB2111
:101C02000A128A150A128A15A2210A128A1590301E
:101C12000A128A15B4210A128A1500300A128A158C
:101C2200B4210A128A150A128A1599210A128A15F2
:101C320091300A128A15B4210A128A1567300A12E3
:101C42008A1551220A128A1566300A128A15512201
:101C52000A128A150A128A15AB210A128A158312F0
:101C620003136608D60005300310D60CFF3E031D91
:101C7200352E5608D700D8016708D900DA010310BB
:101C8200D90DDA0D0310D90DDA0D0310D90DDA0DC5
:101C920057085904E40058085A04E5003E30A300EE
:101CA2000030A2000030A1000030A0006408F00063
:101CB2006508F1000030F11BFF30F200F300013043
:101CC2000A128A115E200A128A15730883120313FC
:101CD200A7007208A6007108A5007008A4000A12E5
:101CE2008A1176240A128A15831203132308E30049
:101CF2002208E2002108E1002008E00067088600CF
:101D02006308C8006208C7006108C6006008C50011
:101D1200BE30D6005608C9000A128A1118210A12CA
:101D22008A150A128A1518220A128A150A128A15A7
:101D32002F230A128A15003A0319A02EA12ECC2FA6
:101D42006A300A128A155B230A128A1569300A124E
:101D52008A155B230A128A156C300A128A155B23D4
:101D62000A128A156B300A128A155B230A128A1527
:101D720068300A128A155B230A128A15831203132A
:101D82006A086907D600D701D70D6C085607D80034
:101D92000030031801305707D9006B085807DA00E2
:101DA2000030031801305907DB00FF305A05DC0010
:101DB20000305B05DD006808DE00DF015D085F06BC
:101DC200031DE52E5C085E06031DE82EE92EA92FF1
:101DD2000A30F0000030F1006C08D600D701560836
:101DE200F2005708F3000A128A1579240A128A159A
:101DF2007008303E83120313D80058088316031369
:101E0200B6000A30F0000030F100831203136C08B0
:101E1200D600D7015608F2005708F3000A128A11B9
:101E220005200A128A157008303E83120313D80067
:101E3200580883160313B7000A30F0000030F1008F
:101E4200831203136A08D600D7015608F200570816
:101E5200F3000A128A1579240A128A157008303E94
:101E620083120313D800580883160313A7000A30FD
:101E7200F0000030F100831203136A08D600D70184
:101E82005608F2005708F3000A128A1105200A12B6
:101E92008A157008303E83120313D800580883163F
:101EA2000313A800F301F30A01300A128A15722201
:101EB2000A128A15AF30F2000030F3000A128A15B6
:101EC200B9220A128A15F301F30A02300A128A159C
:101ED20072220A128A15831603134308303E0A122D
:101EE2008A15CC210A128A15831603134208303E42
:101EF2000A128A15CC210A128A1583160313410885
:101F0200303E0A128A15CC210A128A152E300A1284
:101F12008A15CC210A128A15831603133F08303E14
:101F22000A128A15CC210A128A1583160313400855
:101F3200303E0A128A15CC210A128A15831603131F
:101F42003E08303E0A128A15CC210A128A15EE2F5B
:101F5200F301F30A01300A128A1572220A128A1553
:101F62000130F2008030F3000A128A15B9220A12F7
:101F72008A15F301F30A02300A128A1572220A1232
:101F82008A150130F2008030F3000A128A15B92254
:101F92000A128A15EE2FF301F30A01300A128A158A
:101FA20072220A128A150130F2008030F3000A12FE
:101FB2008A15B9220A128A15F301F30A02300A12AB
:101FC2008A1572220A128A150130F2008030F3005B
:101FD2000A128A15B9220A128A15831203131010E3
:101FE2001A3083120313D700F730D600D60BF72F1F
:0E1FF200D70BF72FFC2F032E0A128A1100289E
:04400E00F420FF3F5C
:00000001FF
