:020000040000FA
:060000000A128A110C280F
:10000800FE00030EF0000A08F1000A128A15892979
:100018000A128A110F280A128A11FF270A128A1156
:10002800FB0083160313A001A101A201A301A401EF
:10003800A501A601A701A801A901AA01AB01831284
:100048000313DF01E001E101E201E301E401E5015D
:10005800E601F901FA0183010A128A15A82D831213
:1000680003132D088039B2003208B7002D08B200FA
:100078003207B3003308BD00AC1F43284428452885
:100088003D143D08031949284A2859283D0A031DEB
:100098004E284F2857280030AD000030AC00003003
:1000A800AB000030AA00AC1761280030AD0000306A
:1000B800AC000030AB000030AA0031088039B20033
:1000C8003208B7063108B2003207B3003308B80067
:1000D800B01F6F287028712838143808031975283C
:1000E80076288528380A031D7A287B28832800303B
:1000F800B1000030B0000030AF000030AE00B017E3
:100108008D280030B1000030B0000030AF00003062
:10011800AE00380803199128922897283D08031D36
:1001280096289728A0280030AD000030AC00003099
:10013800AB000030AA00932B2A08B2003208F20064
:1001480030080A128A159E220A128A11730883122D
:100158000313C3007208C2004208B200B301B4011D
:10016800B5013508BC003408BB003308BA003208B2
:10017800B9004308B200B301B401B5013508C100A4
:100188003408C0003308BF003208BE002B08B20094
:100198003208F2002F080A128A159E220A128A11C2
:1001A800730883120313C3007208C2004208B20026
:1001B800B301B401B5013208B907330803110318B4
:1001C800013E0319E828BA07340803110318013E51
:1001D8000319EF28BB07350803110318013E03195B
:1001E800F628BC074308B200B301B401B5013208D0
:1001F800BE07330803110318013E03190429BF077A
:10020800340803110318013E03190B29C0073508E8
:1002180003110318013E03191229C1072C08B20063
:100228003208F2002E080A128A159E220A128A1132
:10023800730883120313C3007208C2004208B20095
:10024800B301B401B5013208B90733080311031823
:10025800013E03193029BA07340803110318013E77
:1002680003193729BB07350803110318013E031981
:100278003E29BC074308B200B301B401B5013208F6
:10028800BE07330803110318013E03194C29BF07A1
:10029800340803110318013E03195329C007350810
:1002A80003110318013E03195A29C1070830B20087
:1002B8000310B90DBA0DBB0DBC0DB20B5C292B0890
:1002C800B2003208F2002E080A128A159E220A127B
:1002D8008A11730883120313C3007208C20042080C
:1002E800B2004308B300B401B5013208B9073308B6
:1002F80003110318013E03198229BA0734080311B0
:100308000318013E03198929BB073508031103188F
:10031800013E03199029BC072A08B2003208F200EE
:100328002F080A128A159E220A128A11730883124C
:100338000313C3007208C2004208B2004308B300A6
:10034800B401B5013208B907330803110318013E97
:100358000319AF29BA07340803110318013E03191A
:10036800B629BB07350803110318013E0319BD2937
:10037800BC070830B2000310B90DBA0DBB0DBC0D97
:10038800B20BBF292A08B2003208F2002E080A125E
:100398008A159E220A128A11730883120313C30056
:1003A8007208C2004208B2004308B300B401B501A4
:1003B8003208B907330803110318013E0319E52968
:1003C800BA07340803110318013E0319EC29BB07C7
:1003D800350803110318013E0319F329BC072B083C
:1003E800B2003208F20030080A128A159E220A1258
:1003F8008A11730883120313C3007208C2004208EB
:10040800B2004308B300B401B5013208BE0733088F
:1004180003110318013E0319122ABF0734080311F8
:100428000318013E0319192AC007350803110318D8
:10043800013E0319202AC1072C08B2003208F20035
:100448002F080A128A159E220A128A11730883122B
:100458000313C3007208C2004208B2004308B30085
:10046800B401B5013208BE07330803110318013E71
:1004780003193F2ABF07340803110318013E031963
:10048800462AC007350803110318013E03194D2AEF
:10049800C1072C08B2003208F20030080A128A1587
:1004A8009E220A128A11730883120313C30072086A
:1004B800C2004208B2004308B300B401B5010830D5
:1004C8000310B20DB30DB40DB50DFF3E031D642A24
:1004D8003208BE07330803110318013E0319752AB1
:1004E800BF07340803110318013E03197C2AC0070B
:1004F800350803110318013E0319832AC107390877
:10050800B2003A08B3003B08B4003C08B500183004
:100518000310B50CB40CB30CB20CFF3E031D8C2AAF
:100528003208BE07330803110318013E03199D2A38
:10053800BF07340803110318013E0319A42AC00792
:10054800350803110318013E0319AB2AC107083007
:10055800B2000310B90DBA0DBB0DBC0DB20BAD2A1C
:100568003D083807B200B301B30D3208823EC2001D
:1005780033080318013EFF3EC300DF2A0130B200F2
:100588000310BE0DBF0DC00DC10DB20BC42ABC1F98
:10059800CE2ACF2AD02A3E140130B2000310B90D5A
:1005A800BA0DBB0DBC0DB20BD22AFF30C20703181F
:1005B800C30AFF30C307C01FE22AE32AC22AB801D0
:1005C800BC1FE72AE82A042BFF303905B200FF30A8
:1005D8003A05B300FF303B05B4007F303C05B50059
:1005E80035083404330432040319FB2AFC2AFF2A91
:1005F800B801B80A042B3E1C022B032B042BFC2A3F
:1006080038080319082B092B3A2B0130BE07003094
:1006180003180130BF07003003180130C00700304D
:1006280003180130C107411C1A2B1B2B3A2B3E081B
:10063800B2003F08B3004008B4004108B5000130DB
:10064800B600350DB50CB40CB30CB20CB60B252B9B
:100658003508C1003408C0003308BF003208BE00A6
:100668000130C2070318C30A0030C3074308803AA1
:10067800FF0080307F02031D432BFF304202031C22
:10068800462B472B522B7F3083120313C100803037
:10069800C0000030BF000030BE00872B8312031358
:1006A8004308803AFF0080307F02031D5D2B013034
:1006B80042020318602B612B6D2B00308312031349
:1006C800C1000030C0000030BF000030BE00B701DC
:1006D800872B831203134208B2003208BD00FF3093
:1006E800BE05FF30BF057F30C0050030C1053D1C89
:1006F8007E2B7F2B802BC0173D08B2000310320CD5
:10070800B3003308C1003708B2003208C1044108F9
:10071800AD004008AC003F08AB003E08AA00080046
:100728008312031323088039A8002808F20023083D
:10073800A8002807A9002908F400A21FA42BA52BAC
:10074800A62B741474080319AA2BAB2BBB2B740AA1
:10075800031DAF2BB02BB82B0030A3000030A20034
:100768000030A1000030A000A217A301C32B003065
:10077800A3000030A2000030A1000030A00027082C
:100788008039A8002808F300730872060319CD2BD6
:10079800CE2BCF2B72172708A8002807A9002908F5
:1007A800F300A61FD82BD92BDA2B7314730803195F
:1007B800DE2BDF2BEF2B730A031DE32BE42BEC2B33
:1007C8000030A7000030A6000030A5000030A400CB
:1007D800A617A701F72B0030A7000030A6000030AD
:1007E800A5000030A400740873020318FC2BFD2B2D
:1007F800412C721F002C012C052C8030A8002808E1
:10080800F2067408A8002808F5007308A80028084C
:10081800F4007508A8002808F3002008A800280894
:10082800F5002408A8002808A0007508A8002808D2
:10083800A4002108A8002808F5002508A800280811
:10084800A1007508A8002808A5002208A800280803
:10085800F5002608A8002808A2007508A80028089E
:10086800A6002308A8002808F5002708A8002808DB
:10087800A3007508A8002808A700F5017308A800B8
:10088800A9012908AB0074082802AA00031CAB03BD
:100898002B08803AFF0080307F02031D552C1A3048
:1008A8002A02031C582C592C9A2C83120313230850
:1008B800220421042004031D622C642C0130652CC1
:1008C8000030A8002808F5000030A3000030A2007E
:1008D8000030A1000030A0007308A8002808F40028
:1008E800A02C751C782C792C842C75088312031382
:1008F800A8000310280C0138A9002908F500862C47
:100908000310F50C83120313201C8B2C8C2C8D2CBC
:10091800F5170130A800230DA30CA20CA10CA00C04
:10092800A80B8F2C0130A8002808F407730874025C
:10093800031C9F2CA02C752C721BA32CA42CF32C0D
:100948007408031DA82CA92CB42C0030831203139F
:10095800A3000030A2000030A1000030A000232E28
:10096800831203132408A007250803110318013E66
:100978000319BF2CA107260803110318013E031908
:10098800C62CA207270803110318013E0319CD2C12
:10099800A307231CD02CD12CA92D751CD42CD52C05
:1009A800DE2C7508A8000310280C0138A9002908B6
:1009B800F500E02C0310F50C201CE32CE42CE52CAE
:1009C800F5170130A800230DA30CA20CA10CA00C54
:1009D800A80BE72C0130A8002808F407A92D8312DA
:1009E80003132308803AFF002708803A7F02031D7B
:1009F800072D26082202031D072D25082102031DA5
:100A0800072D2408200203180A2D0B2D632DFF3013
:100A1800A800FF30A900FF30AA00FF30AB0024086F
:100A2800AC002508AD002608AE002708AF00200856
:100A3800AC022108031C210F222D232DAD02220810
:100A4800031C220F282D292DAE022308031C230F77
:100A58002E2D2F2DAF022C08A8072D0803182D0FB7
:100A6800362D372DA9072E0803182E0F3C2D3D2DA6
:100A7800AA072F0803182F0AAB072B08A3002A0878
:100A8800A2002908A1002808A0008030A800280892
:100A9800F206F509F50A7508031D532D542D712D1D
:100AA8000130A007003003180130A10700300318F7
:100AB8000130A207003003180130A307712D240864
:100AC800A0022508031C250FA1022608031C260FD7
:100AD800A2022708031C270FA302230822042104CB
:100AE8002004031D782D792DA52D7508031D7D2D56
:100AF8007E2DA52D0030A3000030A2000030A100FB
:100B08000030A000232E0130A8000310A00DA10D75
:100B1800A20DA30DA80B892DF51F932D942D952DAE
:100B28002014751C982D992D9C2D0314F50D9E2DC0
:100B38000310F50D74080319A22DA32DA52D01305E
:100B4800F402A21FA82DA92D872DF301F51FAD2DA5
:100B5800AE2DBC2D75087F390319B32DB42DB72DD3
:100B6800F301F30ABC2D201CBA2DBB2DBC2DB42DCE
:100B780073080319C02DC12DF52D0130A0070030D1
:100B880003180130A107003003180130A207003014
:100B980003180130A307231CD22DD32DF52D2008CF
:100BA800A8002108A9002208AA002308AB000130E8
:100BB800AC002B0DAB0CAA0CA90CA80CAC0BDD2DB2
:100BC8002B08A3002A08A2002908A1002808A000D1
:100BD800740A0319F02DF12DF52D0130A80028080D
:100BE800F407740A0319F92DFA2DFF2D7408031D53
:100BF800FE2DFF2D0D2E0030A3000030A200003086
:100C0800A1000030A0007408031D0B2E0C2E0D2E21
:100C1800F201741C102E112E132EA217172E7F30DE
:100C2800A8002808A2057408A8000310280CA90029
:100C38002908A300F21F212E222E232EA317080015
:100C4800831203135008C7004F08C6004E08C5009A
:100C58004D08C4000A128A15AF240A128A11831299
:100C680003134408D2005208DB005B08D200D3010A
:100C7800D401D5015508F5005408F4005308F300D1
:100C88005208F20000300A128A11EA260A128A1162
:100C9800750883120313B3007408B2007308B10017
:100CA8007208B0005008B7004F08B6004E08B500EB
:100CB8004D08B4000A128A157A220A128A11831280
:100CC80003133308D9003208D8003108D700300898
:100CD800D6005908B1005808B0005708AF005608A8
:100CE800AE004230AD00C830AC000030AB00003080
:100CF800AA000A128A1133200A128A1183120313D6
:100D08002D08C7002C08C6002B08C5002A08C400F7
:100D18000A128A15AF240A128A118312031344088F
:100D2800D2005208DA005C30D2005208A4005D30CC
:100D3800D3005308A5005E30D4005408A6005B0811
:100D48000A128A152B250A128A11831203135C08CA
:100D5800D2005108033E84005208831380005D08C6
:100D6800D2005108043E8400520880005E08D20078
:100D78005108053E8400520880005C30D2005208B9
:100D8800A4005D30D3005308A5005E30D400540899
:100D9800A6005A080A128A152B250A128A118312EC
:100DA80003135C08D2005108023E840052088313E2
:100DB80080005D08D200510A8400520880005E0855
:100DC800D2005108840052088000080083120313DF
:100DD800A40024080319F12EF22E062FF51FF52E74
:100DE800F62E062F7209A6007309A7007409A80039
:100DF8007509A900A60A0319A70A0319A80A03195D
:100E0800A90A0E2F7508A9007408A8007308A7007E
:100E18007208A6007508740473047204031D152F64
:100E2800162F1F2F0030F5000030F4000030F300BB
:100E38000030F200A52F9630A0002008A500312F21
:100E48000130A0002008A50701300310A90CA80C48
:100E5800A70CA60CFF3E031D292FFE302905031DF4
:100E6800362F372F242F532F0130A0002008A50735
:100E78000130A607003003180130A7070030031817
:100E88000130A807003003180130A907013003100A
:100E9800A90CA80CA70CA60CFF3E031D4B2FFF3076
:100EA8002905031D582F592F382F652F0130A5020A
:100EB8000130A0000310A60DA70DA80DA90DA00BC9
:100EC8005E2FA81B682F692F6F2F02302502031889
:100ED8006E2F6F2F5A2F2518722F732F7B2FFF30ED
:100EE800A605FF30A7057F30A805FF30A905031028
:100EF800A50C2508A000A101A201A3011830031028
:100F0800A00DA10DA20DA30DFF3E031D832F2008E8
:100F1800A6042108A7042208A8042308A904240871
:100F28000319972F982F9D2FF51F9B2F9C2F9D2FCF
:100F3800A9172908F5002808F4002708F30026084F
:100F4800F2000800F801F51FAA2FAB2FB22FF40901
:100F5800F509F40A0319F50AF801F80AF31FB52F81
:100F6800B62FBB2FF209F309F20A0319F30A720824
:100F780073040319C02FC12FF02FF701F70ACF2FE1
:100F880001300310F20DF30DFF3E031DC52F013094
:100F9800F6007608F707F31FD22FD32FC42F730854
:100FA8007502031DD92F72087402031CDC2FDD2F74
:100FB800E32F7208F4027308031CF503F5020130ED
:100FC8000310F30CF20CFF3E031DE42F0130F7026F
:100FD800031DEF2FF02FD32F78080319F42FF52FC7
:100FE800FA2FF409F509F40A0319F50A7508F3004C
:100FF8007408F2000800203408308A000408840AC3
:1010080082070034483455344D34203452343A344D
:1010180020340034543465346D3470343A34203418
:02102800003492
:1013120071088A00700E8300FE0E7E0E09000A120A
:101322008A15B6210A128A1583160313911408002E
:101332000A128A15B6210A128A158316031311148A
:1013420008000A128A15B6210A128A158316031397
:1013520011150800F2000A128A15B6210A128A151E
:1013620072088312031393000800831603131419DF
:10137200BB29BC29B62911081F39031DC129C2295D
:10138200B6290800F3008312031389147308880036
:1013920009151A30F200F20BCC2900008312031354
:1013A20009110800F40083120313891074088800DD
:1013B20009150B30F3006230F200F20BDE29F30B59
:1013C200DE2900008312031309110800F500F4015D
:1013D200751CEC29ED29F1297208F3007308F40752
:1013E2000310F20D0310F50C7508031DF929FA29F3
:1013F200E9297408080083160313091083120313E2
:1014020009104130F300EE30F200F20B062AF30B22
:10141200062A00008312031309141030F200F20BA3
:10142200102A00008316031309140800F500292A64
:10143200750884000A128A1500200A128A150A12F7
:101442008A15C3210A128A150130F4007408F507BF
:10145200750884000A128A1500200A128A15003AB9
:10146200031D342A352A192A0800F3000A128A15A4
:10147200B6210A128A158316031391150A128A15C8
:10148200B6210A128A15831203131308F200730895
:1014920084007208831380000A128A15B6210A1288
:1014A2008A1583160313911211160800F7007703A9
:1014B200031D5C2A5D2A682A75087F3EF6007608BD
:1014C200F80078080A128A15D3210A128A15023006
:1014D2007706031D6D2A6E2A792A7508BF3EF6002B
:1014E2007608F80078080A128A15D3210A128A159A
:1014F2000800803083120313B3063708A3003608AE
:10150200A2003508A1003408A0003308A700320861
:10151200A6003108A5003008A4000A128A119423FB
:101522000A128A15831203132308B3002208B20099
:101532002108B1002008B000080083120313A400A0
:10154200A001A1017208F400F5017408A200750857
:10155200A300241CAD2AAE2AB42A2208A00703182D
:10156200A10A2308A10701300310A20DA30DFF3E1B
:10157200031DB52A0310A40C2408031DC12AC22A84
:10158200AA2A2108F3002008F2000800831203139C
:101592008F018E0110140918CF2AD02AD62A64305E
:1015A2000E02031CD52AD62ACC2A64300E02031C52
:1015B200DB2ADC2ADE2A0030F22A8F018E01091C86
:1015C200E32AE42AEA2A64300E02031CE92AEA2A00
:1015D200E02A64300E02031CEF2AF02AF12ADC2AE8
:1015E200013008008316031788018901831603134B
:1015F200850186018801891009118312031385016F
:10160200860188017030831603138F040F148B1721
:101612000B17831203138C12831603138C161030CC
:101622008312031390008F018E010030AB00013052
:10163200AA008630A900A030A8000A128A155923F0
:101642000A128A150800F5007508840083138001C8
:10165200F40183120313091C2F2B302B2A2B8F0129
:101662008E010918352B362B322B33300E02031C18
:101672003B2B3C2B4E2B0130F2007408073C013E01
:10168200442B0310F20DFF3E031D422B7208F300A0
:10169200750884007308831380040130F200720815
:1016A200F40708307402031C572B582B2A2B08000E
:1016B20028308312031394008316031391018030A0
:1016C2009400831203132808AC002908AD002A08ED
:1016D200AE002B08AF0002300310AC0DAD0DAE0D05
:1016E200AF0DFF3E031D6D2B2F08A3002E08A20095
:1016F2002D08A1002C08A0000030A7007A30A60017
:101702001230A5000030A4000A128A15DE230A1244
:101712008A15831203132008FF3E831603139300D6
:101722008715071608008312031389108801823077
:10173200F600DD30F500F50B9C2BF60B9C2BA12B54
:1017420030300A128A15D3210A128A150D30F6009A
:10175200FB30F500F50BAB2BF60BAB2BB02B30307F
:101762000A128A15D3210A128A150D30F600FB30AF
:10177200F500F50BBA2BF60BBA2BBF2B30300A1241
:101782008A15D3210A128A1538300A128A15D321F2
:101792000A128A1506300A128A15D3210A128A15EC
:1017A2000C300A128A15D3210A128A1501300A1244
:1017B2008A15D3210A128A1508000030F60000307B
:1017C200F5000030F4000030F30083120313230805
:1017D2002204210420040319EF2BF02B3D2CF701E6
:1017E200F70A002C0130F2000310A00DA10DA20D8A
:1017F200A30DF20BF52B0130F2007208F707A31FBD
:10180200032C042CF32B0130F2000310F30DF40D22
:10181200F50DF60DF20B062C23082702031D1B2CD7
:1018220022082602031D1B2C21082502031D1B2C46
:1018320020082402031C1E2C1F2C2E2C2008A4027C
:101842002108031C210FA5022208031C220FA60255
:101852002308031C230FA702731401300310A30CE7
:10186200A20CA10CA00CFF3E031D2F2C0130F7028D
:10187200031D3C2C3D2C042C7608A3007508A20005
:101882007408A1007308A000080083120313A101C9
:10189200F31F4C2C4D2C542CF209F309F20A0319B4
:1018A200F30AA101A10AF51F572C582C612CF40947
:1018B200F509F40A0319F50A0130F6007608A106C3
:1018C200A201A301720873040319682C692CA02CCD
:1018D200A001A00A772C01300310F20DF30DFF3E98
:1018E200031D6D2C0130F6007608A007F31F7A2C39
:1018F2007B2C6C2C01300310A20DA30DFF3E031DA7
:101902007C2C73087502031D882C72087402031C58
:101912008B2C8C2C932C7208F4027308031CF50395
:10192200F502221401300310F30CF20CFF3E031DEA
:10193200942C0130A002031D9F2CA02C7B2C21088B
:101942000319A42CA52CAA2CA209A309A20A0319E3
:10195200A30A2308F3002208F200080003108312EE
:101962000313460D470DC8004808F7007708031D0A
:10197200BB2CBC2CC52C0030C7000030C600003088
:10198200C5000030C4002A2D4408C8004508C9001B
:101992004608CA004708CB001F300310CB0CCA0C04
:1019A200C90CC80CFF3E031DCE2C4808CC004C08C5
:1019B200F600C617FF30C405FF30C505FF30C60567
:1019C2000030C7059630F702F71FE82CE92C032DEB
:1019D2007708803A973E0318EF2CF02CF12CBC2CA0
:1019E20001300310C70CC60CC50CC40CFF3E031D0E
:1019F200F22C0130C8004808F707031D012D022D03
:101A0200F12C1A2D20307702031C082D092D152DDB
:101A1200BC2C0130C8000310C40DC50DC60DC70D86
:101A2200C80B0C2D0130F7027708031D192D1A2D52
:101A32000A2D760803191E2D1F2D2A2DC409C5094A
:101A4200C609C709C40A0319C50A0319C60A031934
:101A5200C70A0800F700770883120313A7002708B4
:101A6200F800240884008313800125088400800183
:101A7200260884008001682D6430F2000030F300F3
:101A82007808A700A8012708F4002808F5000A1220
:101A92008A1546240A128A15720883120313A900B2
:101AA200260884002908831380009C30A700270899
:101AB200F2002608840000080A128A15E7210A1299
:101AC2008A15780783120313A8002808F8006430E7
:101AD200780203186D2D6E2D3D2D9A2D0A30F200DD
:101AE2000030F3007808A700A8012708F4002808AE
:101AF200F5000A128A1546240A128A157208831200
:101B02000313A90025088400290883138000F630F6
:101B1200A7002708F2002508840000080A128A1587
:101B2200E7210A128A15780783120313A8002808EE
:101B3200F8000A30780203189F2DA02D6F2D780827
:101B4200A7002408840027088313800008000A12D3
:101B52008A15F3220A128A150A128A1594230A1286
:101B62008A15831203138F018E010A128A15992195
:101B72000A128A1590300A128A15AB210A128A15A6
:101B820001300A128A15AB210A128A1500300A1294
:101B92008A15AB210A128A150A128A15A2210A1283
:101BA2008A150A128A1599210A128A1590300A1288
:101BB2008A15AB210A128A1500300A128A15AB2146
:101BC2000A128A150A128A1590210A128A15913070
:101BD2000A128A15AB210A128A1561300A128A1575
:101BE20036220A128A1560300A128A1536220A1221
:101BF2008A150A128A15A2210A128A158312031360
:101C0200600883160313AC0005300310AC0CFF3ED2
:101C1200031D062E2C08AD00AE01831203136108CA
:101C220083160313AF00B0010310AF0DB00D031004
:101C3200AF0DB00D0310AF0DB00D2D082F04A40091
:101C42002E083004A5003E3083120313AD0000308D
:101C5200AC000030AB000030AA0083160313240846
:101C6200F2002508F300F401F50100300A128A118E
:101C7200EA260A128A15750883120313B100740842
:101C8200B0007308AF007208AE000A128A11332046
:101C92000A128A15831203132D0883160313A30055
:101CA200831203132C0883160313A2008312031357
:101CB2002B0883160313A100831203132A08831629
:101CC2000313A000230883120313D0008316031307
:101CD200220883120313CF008316031321088312F1
:101CE2000313CE0083160313200883120313CD00BF
:101CF200A63083160313AC002C0883120313D10001
:101D02000A128A1124260A128A150A128A159921A0
:101D12000A128A1521300A128A15AB210A128A1573
:101D22005F300A128A1536220A128A150A128A1599
:101D3200A2210A128A15F501F50A01300A128A1542
:101D420057220A128A1509300A128A1517220A1214
:101D52008A15831603132B08303E0A128A15C321F3
:101D62000A128A15831603132A08303E0A128A15AC
:101D7200C3210A128A15831603132908303E0A1258
:101D82008A15C3210A128A152E300A128A15C32116
:101D92000A128A15831603132808303E0A128A157E
:101DA200C3210A128A15831603132708303E0A122A
:101DB2008A15C3210A128A15831603132608303E98
:101DC2000A128A15C3210A128A15DF300A128A15ED
:101DD200C3210A128A1543300A128A15C3210A1234
:101DE2008A15F501F50A02300A128A1557220A12DB
:101DF2008A1501300A128A1517220A128A157908E1
:101E02000A128A15C3210A128A157A080A128A1539
:101E1200C3210A128A1525300A128A15C3210A1211
:101E22008A15362F8312031306148610061586119F
:101E3200532F831203130610861406118615532F8F
:101E4200831203130614861006118615532F83126C
:101E520003130610861406158611532F83120313DB
:101E62000610861006118611532F831203135F0882
:101E720083160313AC00AD012D08003A0319422F5B
:101E8200532F2C08613A0319132F033A03191A2FFF
:101E9200013A0319212F073A0319282F013A03198E
:101EA2002F2F532F0A128A15FC210A128A150A12A1
:101EB2008A15C7220A128A15003A0319612F622F66
:101EC200EE2F64300A128A1524230A128A1563300F
:101ED2000A128A1524230A128A1566300A128A15F2
:101EE20024230A128A1565300A128A1524230A123B
:101EF2008A1562300A128A1524230A128A1583125D
:101F020003136408630783160313AC00AD01AD0D20
:101F1200831203136608831603132C07AE000030E6
:101F2200031801302D07AF008312031365088316CF
:101F320003132E07B0000030031801302F07B10041
:101F4200FF303005B20000303105B30083120313B5
:101F5200620883160313B400B50133083506031D66
:101F6200B42F32083406031DB72FB82FEE2F0A30D4
:101F7200F2000030F3008312031364088316031384
:101F8200AC00AD012C08F4002D08F5000A128A15E8
:101F920046240A128A157208303E83160313AE00D5
:101FA2002E08F9000A30F2000030F3008312031306
:101FB200640883160313AC00AD012C08F4002D084D
:101FC200F5000A128A11A6270A128A157208303EF3
:101FD20083160313AE002E08FA00831203131010A7
:101FE2001A3083160313AD00F730AC00AC0BF72F99
:0E1FF200AD0BF72FFC2FD22D0A128A110C28EE
:04400E00F420FF3F5C
:00000001FF
