:020000040000FA
:060000000A128A11DD2F37
:10000800503428308312031394008316031391018C
:1000180080309400831203132008A4002108A5004F
:100028002208A6002308A70002300310A40DA50D7E
:10003800A60DA70DFF3E031D19282708F300260863
:10004800F2002508F1002408F0000030F7007A30AB
:10005800F6001230F5000030F4000A128A15BA24AE
:100068000A128A117008FF3E83160313930087153E
:10007800071608000A128A15D7230A128A11831252
:1000880003138F018E010A128A1511230A128A118D
:1000980090300A128A1523230A128A1101300A1293
:1000A8008A1523230A128A1100300A128A1523237B
:1000B8000A128A110A128A151A230A128A110A12B6
:1000C8008A1511230A128A1190300A128A152323DD
:1000D8000A128A1100300A128A1523230A128A1179
:1000E8000A128A1508230A128A1191300A128A15EF
:1000F80023230A128A1169300A128A156B230A12FD
:100108008A1168300A128A156B230A128A110A1298
:100118008A151A230A128A11831203136808D60053
:1001280005300310D60CFF3E031D95285608D7004E
:10013800D8016908D900DA010310D90DDA0D0310C6
:10014800D90DDA0D0310D90DDA0D57085904E60058
:1001580058085A04E7003E30A3000030A2000030DF
:10016800A1000030A0006608F0006708F100F20165
:10017800F30100300A128A1580260A128A117308C0
:1001880083120313A7007208A6007108A50070085F
:10019800A4000A128A117C240A128A1183120313FA
:1001A8002308E3002208E2002108E1002008E0001B
:1001B8006308C8006208C7006108C6006008C50077
:1001C800A030D6005608C9000A128A153A270A1222
:1001D8008A110A128A1511230A128A1150300A123A
:1001E8008A1523230A128A118316031325080A1273
:1001F8008A1523230A128A118316031324080A1264
:100208008A1523230A128A118316031323080A1254
:100218008A1523230A128A118316031321080A1246
:100228008A1523230A128A118316031322080A1235
:100238008A1523230A128A118316031320080A1227
:100248008A1523230A128A110A128A151A230A12F6
:100258008A110A128A1550230A128A110A128A155B
:1002680000240A128A11003A03193B293C29D22991
:100278006C300A128A152C240A128A116B300A1261
:100288008A152C240A128A116E300A128A152C2417
:100298000A128A116D300A128A152C240A128A1140
:1002A8006A300A128A152C240A128A11831203133F
:1002B8006C086B07D600D701D70D6E085607D80013
:1002C8000030031801305707D9006D085807DA00C5
:1002D8000030031801305907DB00FF305A05DC00F5
:1002E80000305B05DD006A08DE00DF015D085F069F
:1002F800031D80295C085E06031D83298429D229F1
:100308000A30F0000030F1006C08D600D70156081A
:10031800F2005708F3000A128A1520250A128A11DA
:100328007008303E83120313D8005808E4000A30DE
:10033800F0000030F1006C08D600D7015608F20032
:100348005708F3000A128A1561240A128A117008E4
:10035800303E83120313D8005808E5000A128A15A4
:1003680011230A128A1150300A128A1523230A12FD
:100378008A118312031364080A128A1523230A12A6
:100388008A118312031365080A128A1523230A1295
:100398008A110A128A151A230A128A118312031360
:1003A80010101A3083120313D700F730D600D60B7B
:1003B800DB29D70BDB29E02963280A128A110028D8
:1003C8007308803983120313A0002008F80073080B
:1003D800A0002007A1002108FA00F21FF429F5293E
:1003E800F6297A147A080319FA29FB290B2A7A0ABA
:1003F800031DFF29002A082A0030F3000030F2000C
:100408000030F1000030F000F217F301132A003039
:10041800F3000030F2000030F1000030F0007708FF
:100428008039A0002008F9007908780603191D2AE8
:100438001E2A1F2A78177708A0002007A100210884
:10044800F900F61F282A292A2A2A79147908031973
:100458002E2A2F2A3F2A790A031D332A342A3C2AB6
:100468000030F7000030F6000030F5000030F400EE
:10047800F617F701472A0030F7000030F600003081
:10048800F5000030F4007A08790203184C2A4D2A46
:10049800912A781F502A512A552A8030A000200816
:1004A800F8067A08A0002008FB007908A0002008B8
:1004B800FA007B08A0002008F9007008A0002008B6
:1004C800FB007408A0002008F0007B08A0002008AA
:1004D800F4007108A0002008FB007508A00020089F
:1004E800F1007B08A0002008F5007208A000200891
:1004F800FB007608A0002008F2007B08A000200876
:10050800F6007308A0002008FB007708A000200868
:10051800F3007B08A0002008F700FB017908A00081
:10052800A1012108A3007A082002A200031CA3034A
:100538002308803AFF0080307F02031DA52A1A3065
:100548002202031CA82AA92AEA2A73087204710441
:100558007004031DB02AB22A0130B32A0030831276
:100568000313A0002008FB000030F3000030F20065
:100578000030F1000030F0007908A0002008FA00EF
:10058800F02A7B1CC82AC92AD42A7B0883120313A1
:10059800A0000310200C0138A1002108FB00D62A76
:1005A8000310FB0C701CD92ADA2ADB2AFB1701304E
:1005B80083120313A000730DF30CF20CF10CF00C72
:1005C800A00BDF2A0130A0002008FA0779087A0278
:1005D800031CEF2AF02AC52A781BF32AF42A432B96
:1005E8007A08031DF82AF92A022B0030F30000309C
:1005F800F2000030F1000030F0007B2C7408F007A6
:10060800750803110318013E03190B2BF10776082F
:1006180003110318013E0319122BF207770803117F
:100628000318013E0319192BF307731C1C2B1D2BF0
:10063800FB2B7B1C202B212B2C2B7B0883120313D9
:10064800A0000310200C0138A1002108FB002E2B6C
:100658000310FB0C701C312B322B332BFB17013092
:1006680083120313A000730DF30CF20CF10CF00CC1
:10067800A00B372B0130A0002008FA07FB2B7308CA
:10068800803AFF007708803A7F02031D552B7608D1
:100698007202031D552B75087102031D552B740832
:1006A80070020318582B592BB32BFF3083120313F6
:1006B800A000FF30A100FF30A200FF30A3007408A3
:1006C800A4007508A5007608A6007708A70070089A
:1006D800A4027108031C710F722B732BA5027208F8
:1006E800031C720F782B792BA6027308031C730F57
:1006F8007E2B7F2BA7022408A00725080318250FA7
:10070800862B872BA10726080318260F8C2B8D2BE9
:10071800A20727080318270AA3072308F3002208BB
:10072800F2002108F1002008F0008030A000200825
:10073800F806FB09FB0A7B08031DA32BA42BC12B7E
:100748000130F007003003180130F10700300318BA
:100758000130F207003003180130F307C12B740889
:10076800F0027508031C750FF1027608031C760F5A
:10077800F2027708031C770FF302730872047104FE
:100788007004031DC82BC92BF72B7B08031DCD2B29
:10079800CE2BF72B0030F3000030F2000030F100D0
:1007A8000030F0007B2C013083120313A0000310EB
:1007B800F00DF10DF20DF30DA00BDB2BFB1FE52B5C
:1007C800E62BE72B70147B1CEA2BEB2BEE2B031488
:1007D800FB0DF02B0310FB0D7A080319F42BF52BF6
:1007E800F72B0130FA02F21FFA2BFB2BD72BF9015A
:1007F800FB1FFF2B002C0E2C7B087F390319052CBF
:10080800062C092CF901F90A0E2C701C0C2C0D2C45
:100818000E2C062C79080319122C132C492C0130A4
:10082800F007003003180130F107003003180130D9
:10083800F207003003180130F307731C242C252C11
:10084800492C700883120313A0007108A1007208D4
:10085800A2007308A3000130A400230DA30CA20C6E
:10086800A10CA00CA40B312C2308F3002208F200E1
:100878002108F1002008F0007A0A0319442C452CBD
:10088800492C0130A0002008FA077A0A03194D2CD8
:100898004E2C532C7A08031D522C532C612C0030FB
:1008A800F3000030F2000030F1000030F0007A0868
:1008B800031D5F2C602C612CF8017A1C642C652CBC
:1008C800672CF2176D2C7F3083120313A0002008C9
:1008D800F2057A0883120313A0000310200CA1006C
:1008E8002108F300F81F792C7A2C7B2CF3170800C9
:1008F8008312031323088039A8002808AD002308B1
:10090800A8002807A9002908B300A21F8C2C8D2C49
:100918008E2C331433080319922C932CA22C330AEF
:10092800031D972C982CA02C0030A3000030A200A7
:100938000030A1000030A000A217AA2C0030A300AC
:100948000030A2000030A1000030A0002708803944
:10095800A8002808AD062708A8002807A900290824
:10096800B200A61FB82CB92CBA2C321432080319BD
:10097800BE2CBF2CCE2C320A031DC32CC42CCC2C6D
:100988000030A7000030A6000030A5000030A40009
:10099800A617D62C0030A7000030A6000030A5000E
:1009A8000030A40032080319DA2CDB2CE02C3308C1
:1009B800031DDF2CE02CE92C0030A3000030A2003E
:1009C8000030A1000030A000DC2F2008A800280873
:1009D800F00026080A128A15B0230A128A11710833
:1009E80083120313B9007008B8003808A800A901D9
:1009F800AA01AB012B08B1002A08B0002908AF00F2
:100A08002808AE003908A800A901AA01AB012B08E3
:100A1800B7002A08B6002908B5002808B40021083C
:100A2800A8002808F00025080A128A15B0230A121F
:100A38008A11710883120313B9007008B8003808C6
:100A4800A800A901AA01AB012808AE0729080311CB
:100A58000318013E0319312DAF072A0803110318A3
:100A6800013E0319382DB0072B0803110318013E66
:100A780003193F2DB1073908A800A901AA01AB0144
:100A88002808B407290803110318013E03194D2D3E
:100A9800B5072A0803110318013E0319542DB60798
:100AA8002B0803110318013E03195B2DB707220811
:100AB800A8002808F00024080A128A15B0230A1290
:100AC8008A11710883120313B9007008B800380836
:100AD800A800A901AA01AB012808AE07290803113B
:100AE8000318013E0319792DAF072A0803110318CB
:100AF800013E0319802DB0072B0803110318013E8E
:100B08000319872DB1073908A800A901AA01AB016B
:100B18002808B407290803110318013E0319952D65
:100B2800B5072A0803110318013E03199C2DB607BF
:100B38002B0803110318013E0319A32DB70708302A
:100B4800A8000310AE0DAF0DB00DB10DA80BA52D6B
:100B58002108A8002808F00024080A128A15B023E2
:100B68000A128A11710883120313B9007008B800B9
:100B78003808A8003908A900AA01AB012808AE075F
:100B8800290803110318013E0319CB2DAF072A08C2
:100B980003110318013E0319D22DB0072B080311C6
:100BA8000318013E0319D92DB1072008A800280809
:100BB800F00025080A128A15B0230A128A11710852
:100BC80083120313B9007008B8003808A800390860
:100BD800A900AA01AB012808AE07290803110318C8
:100BE800013E0319F82DAF072A0803110318013E27
:100BF8000319FF2DB0072B0803110318013E031931
:100C0800062EB1070830A8000310AE0DAF0DB00DC9
:100C1800B10DA80B082E2008A8002808F000240809
:100C28000A128A15B0230A128A1171088312031353
:100C3800B9007008B8003808A8003908A900AA0146
:100C4800AB012808AE07290803110318013E031950
:100C58002E2EAF072A0803110318013E0319352E5B
:100C6800B0072B0803110318013E03193C2EB107E6
:100C78002108A8002808F00026080A128A15B023BF
:100C88000A128A11710883120313B9007008B80098
:100C98003808A8003908A900AA01AB012808B40738
:100CA800290803110318013E03195B2EB5072A080A
:100CB80003110318013E0319622EB6072B0803110E
:100CC8000318013E0319692EB7072208A80028084F
:100CD800F00025080A128A15B0230A128A11710831
:100CE80083120313B9007008B8003808A80039083F
:100CF800A900AA01AB012808B407290803110318A1
:100D0800013E0319882EB5072A0803110318013E6E
:100D180003198F2EB6072B0803110318013E031978
:100D2800962EB7072208A8002808F00026080A12FD
:100D38008A15B0230A128A11710883120313B900A5
:100D48007008B8003808A8003908A900AA01AB0142
:100D580008300310A80DA90DAA0DAB0DFF3E031D09
:100D6800AD2E2808B407290803110318013E0319FA
:100D7800BE2EB5072A0803110318013E0319C52E14
:100D8800B6072B0803110318013E0319CC2EB70729
:100D98002E08A8002F08A9003008AA003108AB00C7
:100DA80018300310AB0CAA0CA90CA80CFF3E031DAD
:100DB800D52E2808B407290803110318013E031982
:100DC800E62EB5072A0803110318013E0319ED2E74
:100DD800B6072B0803110318013E0319F42EB707B1
:100DE8000830A8000310AE0DAF0DB00DB10DA80B63
:100DF800F62E33083207A800A901A90D2808823E5B
:100E0800B80029080318013EFF3EB900282F013019
:100E1800A8000310B40DB50DB60DB70DA80B0D2F16
:100E2800B11F172F182F192F34140130A8000310E1
:100E3800AE0DAF0DB00DB10DA80B1B2FFF30B807CD
:100E48000318B90AFF30B907B61F2B2F2C2F0B2F09
:100E5800B201B11F302F312F4D2FFF302E05A800C2
:100E6800FF302F05A900FF303005AA007F3031057B
:100E7800AB002B082A04290428040319442F452F02
:100E8800482FB201B20A4D2F341C4B2F4C2F4D2F37
:100E9800452F32080319512F522F832F0130B407E1
:100EA800003003180130B507003003180130B607C9
:100EB800003003180130B707371C632F642F832FC6
:100EC8003408A8003508A9003608AA003708AB007E
:100ED8000130AC002B0DAB0CAA0CA90CA80CAC0B68
:100EE8006E2F2B08B7002A08B6002908B500280875
:100EF800B4000130B8070318B90A0030B907390837
:100F0800803AFF0080307F02031D8C2FFF303802AB
:100F1800031C8F2F902F9B2F7F3083120313B70052
:100F28008030B6000030B5000030B400D02F8312F6
:100F380003133908803AFF0080307F02031DA62F73
:100F4800013038020318A92FAA2FB62F00308312B8
:100F58000313B7000030B6000030B5000030B4000D
:100F6800AD01D02F831203133808A8002808B30056
:100F7800FF30B405FF30B5057F30B6050030B70542
:100F8800331CC72FC82FC92FB6173308A800031062
:100F9800280CA9002908B7002D08A8002808B704BC
:100FA8003708A3003608A2003508A1003408A000BD
:100FB80008000A128A1104200A128A11EF00831607
:100FC8000313A001A101A201A301A401A501831299
:100FD8000313E001E101E201E301E401E501E601B7
:100FE800E701E801E901EA01EB01EC01ED01EE019D
:080FF80083010A128A113E2850
:101610000A128A152E230A128A15831603139114AF
:1016200008000A128A152E230A128A15831603133C
:10163000111408000A128A152E230A128A1583161D
:10164000031311150800F0000A128A152E230A123E
:101650008A1570088312031393000800831603137E
:101660001419332B342B2E2B11081F39031D392B42
:101670003A2B2E2B0800F300F201731C402B412B58
:10168000452B7008F1007108F2070310F00D0310EC
:10169000F30C7308031D4D2B4E2B3D2B72080800D5
:1016A0008316031309108312031309104130F1004C
:1016B000EE30F000F00B5A2BF10B5A2B0000831286
:1016C000031309141030F000F00B642B0000831694
:1016D000031309140800F1000A128A152E230A12B6
:1016E0008A158316031391150A128A152E230A12DE
:1016F0008A15831203131308F00071088400700820
:10170000831380000A128A152E230A128A15831663
:101710000313911211160800803083120313AB06D5
:101720002F08F3002E08F2002D08F1002C08F0001D
:101730002B08F7002A08F6002908F5002808F4000D
:101740000A128A11E4210A128A15730883120313FC
:10175000AB007208AA007108A9007008A800080070
:10176000F800F401F5017008F200F3017208F600C8
:101770007308F700781CBD2BBE2BC42B7608F4072A
:101780000318F50A7708F50701300310F60DF70D79
:10179000FF3E031DC52B0310F80C7808031DD12B49
:1017A000D22BBA2B7508F1007408F00008008316DC
:1017B00003178801890183160313850186018801B7
:1017C0008910091183120313850186018801703085
:1017D000831603138F040F14103083120313900029
:1017E0008F018E010030A3000130A2008630A100DD
:1017F000A030A0000A128A1105200A128A150800DA
:10180000831203138F018E0110140918082C092C60
:101810000F2C64300E02031C0E2C0F2C052C643090
:101820000E02031C142C152C172C00302B2C8F01AE
:101830008E01091C1C2C1D2C232C64300E02031C51
:10184000222C232C192C64300E02031C282C292C4A
:101850002A2C152C01300800F30073088400831330
:101860008001F20183120313091C372C382C322C0F
:101870008F018E0109183D2C3E2C3A2C33300E027C
:10188000031C432C442C562C0130F0007208073CFA
:10189000013E4C2C0310F00DFF3E031D4A2C700836
:1018A000F100730884007108831380040130F00094
:1018B0007008F20708307202031C5F2C602C322C77
:1018C0000800F601F31F652C662C6D2CF209F30954
:1018D000F20A0319F30AF601F60AF11F702C712CB3
:1018E000762CF009F109F00A0319F10A7008710465
:1018F00003197B2C7C2CAB2CF501F50A8A2C0130CA
:101900000310F00DF10DFF3E031D802C0130F4009B
:101910007408F507F11F8D2C8E2C7F2C7108730233
:10192000031D942C70087202031C972C982C9E2C7B
:101930007008F2027108031CF303F3020130031074
:10194000F10CF00CFF3E031D9F2C0130F502031D2E
:10195000AA2CAB2C8E2C76080319AF2CB02CB52CEE
:10196000F209F309F20A0319F30A7308F100720885
:10197000F00008000030FC000030FB000030FA00EE
:101980000030F90073087204710470040319C92C43
:10199000CA2C172DFD01FD0ADA2C0130F8000310C6
:1019A000F00DF10DF20DF30DF80BCF2C0130F80016
:1019B0007808FD07F31FDD2CDE2CCD2C0130F8005C
:1019C0000310F90DFA0DFB0DFC0DF80BE02C73085C
:1019D0007702031DF52C72087602031DF52C7108A1
:1019E0007502031DF52C70087402031CF82CF92CE9
:1019F000082D7008F4027108031C710FF5027208BB
:101A0000031C720FF6027308031C730FF70279149C
:101A100001300310F30CF20CF10CF00CFF3E031D2F
:101A2000092D0130FD02031D162D172DDE2C7C081B
:101A3000F3007B08F2007A08F1007908F000080052
:101A4000F601F11F242D252D2C2DF009F109F00AA6
:101A50000319F10AF601F60AF31F2F2D302D392D47
:101A6000F209F309F20A0319F30A0130F4007408C9
:101A7000F606F701F801700871040319402D412D95
:101A8000782DF501F50A4F2D01300310F00DF10D01
:101A9000FF3E031D452D0130F4007408F507F11FCA
:101AA000522D532D442D01300310F70DF80DFF3E3C
:101AB000031D542D71087302031D602D70087202FE
:101AC000031C632D642D6B2D7008F2027108031C3A
:101AD000F303F302771401300310F10CF00CFF3E16
:101AE000031D6C2D0130F502031D772D782D532D2C
:101AF000760803197C2D7D2D822DF709F809F70A48
:101B00000319F80A7808F1007708F00008000310BC
:101B1000831203133C0D3D0DBE003E08C400440873
:101B2000031D932D942D9D2D0030BD000030BC0071
:101B30000030BB000030BA00022E3A08BE003B085D
:101B4000BF003C08C0003D08C1001F300310C10C9D
:101B5000C00CBF0CBE0CFF3E031DA62D3E08C200EC
:101B60004208C300BC17FF30BA05FF30BB05FF3089
:101B7000BC050030BD059630C402C41FC02DC12D68
:101B8000DB2D4408803A973E0318C72DC82DC92D78
:101B9000942D01300310BD0CBC0CBB0CBA0CFF3EE5
:101BA000031DCA2D0130BE003E08C407031DD92DF8
:101BB000DA2DC92DF22D20304402031CE02DE12D39
:101BC000ED2D942D0130BE000310BA0DBB0DBC0DE0
:101BD000BD0DBE0BE42D0130C4024408031DF12DE0
:101BE000F22DE22D43080319F62DF72D022EBA0926
:101BF000BB09BC09BD09BA0A0319BB0A0319BC0A0F
:101C00000319BD0A0800FC007C0883120313A0001E
:101C10002008FD0079088400831380017A0884007D
:101C200080017B0884008001402E6430F000003089
:101C3000F1007D08A000A1012008F2002108F300B6
:101C40000A128A1520250A128A15700883120313B6
:101C5000A2007B0884002208831380009C30A0002F
:101C60002008F0007B08840000080A128A153B2334
:101C70000A128A157D0783120313A1002108FD00B3
:101C800064307D020318452E462E152E722E0A3022
:101C9000F0000030F1007D08A000A1012008F20052
:101CA0002108F3000A128A1520250A128A157008E5
:101CB00083120313A2007A08840022088313800091
:101CC000F630A0002008F0007A08840000080A120C
:101CD0008A153B230A128A157D0783120313A1007C
:101CE0002108FD000A307D020318772E782E472E3A
:101CF0007D08A00079088400200883138000080074
:101D0000F80078080319852E862E9A2EF31F892E47
:101D10008A2E9A2E7009FA007109FB007209FC00E4
:101D20007309FD00FA0A0319FB0A0319FC0A0319D7
:101D3000FD0AA22E7308FD007208FC007108FB006A
:101D40007008FA007308720471047004031DA92E50
:101D5000AA2EB32E0030F3000030F2000030F10064
:101D60000030F000392F9630F4007408F900C52EC9
:101D70000130F4007408F90701300310FD0CFC0C6D
:101D8000FB0CFA0CFF3E031DBD2EFE307D05031D2E
:101D9000CA2ECB2EB82EE72E0130F4007408F907B6
:101DA0000130FA07003003180130FB070030031838
:101DB0000130FC07003003180130FD07013003102B
:101DC000FD0CFC0CFB0CFA0CFF3E031DDF2EFF305C
:101DD0007D05031DEC2EED2ECC2EF92E0130F902DF
:101DE0000130F4000310FA0DFB0DFC0DFD0DF40B9A
:101DF000F22EFC1BFC2EFD2E032F0230790203185D
:101E0000022F032FEE2E7918062F072F0F2FFF30EA
:101E1000FA05FF30FB057F30FC05FF30FD050310A0
:101E2000F90C7908F400F501F601F70118300310F8
:101E3000F40DF50DF60DF70DFF3E031D172F740879
:101E4000FA047508FB047608FC047708FD0478089A
:101E500003192B2F2C2F312FF31F2F2F302F312F22
:101E6000FD177D08F3007C08F2007B08F1007A087A
:101E7000F0000800831203134808BD004708BC00A7
:101E80004608BB004508BA000A128A1587250A12BF
:101E90008A15831203133A08CA004A08D30053086C
:101EA000CA00CB01CC01CD014D08F3004C08F20073
:101EB0004B08F1004A08F00000300A128A1580260B
:101EC0000A128A15730883120313AB007208AA0062
:101ED0007108A9007008A8004808AF004708AE00C4
:101EE0004608AD004508AC000A128A158C230A1278
:101EF0008A15831203132B08D1002A08D000290861
:101F0000CF002808CE005108A7005008A6004F08AF
:101F1000A5004E08A4004230A300C830A200003043
:101F2000A1000030A0000A128A117C240A128A152E
:101F3000831203132308BD002208BC002108BB0044
:101F40002008BA000A128A1587250A128A158312F8
:101F500003133A08CA004A08D2005430CA004A089B
:101F6000F9005530CB004B08FA005630CC004C0835
:101F7000FB0053080A128A1503260A128A158312D7
:101F800003135408CA004908033E84004A08831317
:101F900080005508CA004908043E84004A088000B1
:101FA0005608CA004908053E84004A08800054309B
:101FB000CA004A08F9005530CB004B08FA005630E9
:101FC000CC004C08FB0052080A128A1503260A129C
:101FD0008A15831203135408CA004908023E84007C
:101FE0004A08831380005508CA00490A84004A0839
:101FF00080005608CA00490884004A08800008008A
:04400E00F420FF3F5C
:00000001FF
