:020000040000FA
:100000000A128A110C282034FE00030EF1000A089F
:10001000F2000A128A1560290A128A110F280A12A0
:100020008A1103200A128A11FA0083160313A00111
:10003000A101A201A301A401A501A601A701A80194
:10004000A901AA01AB0183120313E201E301E40158
:10005000E501E601E701E801E901F801F9018301A1
:100060000A128A15732D831203132D088039B200EA
:100070003208B7002D08B2003207B3003308BD00C4
:10008000AC1F4328442845283D143D08031949283E
:100090004A2859283D0A031D4E284F28572800306A
:1000A000AD000030AC000030AB000030AA00AC174F
:1000B00061280030AD000030AC000030AB000030F3
:1000C000AA0031088039B2003208B7063108B20000
:1000D0003207B3003308BC00B01F6F2870287128A6
:1000E0003C143C0803197528762885283C0A031D12
:1000F0007A287B2883280030B1000030B00000301F
:10010000AF000030AE00B0178D280030B1000030D5
:10011000B0000030AF000030AE003C080319912859
:10012000922897283D08031D96289728A02800307C
:10013000AD000030AC000030AB000030AA00932BC3
:100140002A08B2003208F30030080A128A15532236
:100150000A128A11740883120313C3007308C200C1
:100160004208B200B301B401B5013508BB00340840
:10017000BA003308B9003208B8004308B200B3012E
:10018000B401B5013508C1003408C0003308BF0010
:100190003208BE002B08B2003208F3002F080A1202
:1001A0008A1553220A128A11740883120313C3009A
:1001B0007308C2004208B200B301B401B5013208AD
:1001C000B807330803110318013E0319E828B907DB
:1001D000340803110318013E0319EF28BA07350844
:1001E00003110318013E0319F628BB074308B200A8
:1001F000B301B401B5013208BE0733080311031877
:10020000013E03190429BF07340803110318013EF6
:1002100003190B29C007350803110318013E031900
:100220001229C1072C08B2003208F3002E080A1266
:100230008A1553220A128A11740883120313C30009
:100240007308C2004208B200B301B401B50132081C
:10025000B807330803110318013E03193029B90701
:10026000340803110318013E03193729BA0735086A
:1002700003110318013E03193E29BB074308B200CE
:10028000B301B401B5013208BE07330803110318E6
:10029000013E03194C29BF07340803110318013E1E
:1002A00003195329C007350803110318013E031928
:1002B0005A29C1070830B2000310B80DB90DBA0DA4
:1002C000BB0DB20B5C292B08B2003208F3002E08DC
:1002D0000A128A1553220A128A1174088312031310
:1002E000C3007308C2004208B2004308B300B4015F
:1002F000B5013208B807330803110318013E03198A
:100300008229B907340803110318013E031989290A
:10031000BA07350803110318013E03199029BB07DA
:100320002A08B2003208F3002F080A128A15532255
:100330000A128A11740883120313C3007308C200DF
:100340004208B2004308B300B401B5013208B8074F
:10035000330803110318013E0319AF29B907340804
:1003600003110318013E0319B629BA073508031112
:100370000318013E0319BD29BB070830B200031062
:10038000B80DB90DBA0DBB0DB20BBF292A08B200CA
:100390003208F3002E080A128A1553220A128A1113
:1003A000740883120313C3007308C2004208B2002A
:1003B0004308B300B401B5013208B807330803118C
:1003C0000318013E0319E529B9073408031103187E
:1003D000013E0319EC29BA07350803110318013E41
:1003E0000319F329BB072B08B2003208F3003008C9
:1003F0000A128A1553220A128A11740883120313EF
:10040000C3007308C2004208B2004308B300B4013D
:10041000B5013208BE07330803110318013E031962
:10042000122ABF07340803110318013E0319192AC1
:10043000C007350803110318013E0319202AC1071C
:100440002C08B2003208F3002F080A128A15532232
:100450000A128A11740883120313C3007308C200BE
:100460004208B2004308B300B401B5013208BE0728
:10047000330803110318013E03193F2ABF0734084C
:1004800003110318013E0319462AC007350803115A
:100490000318013E03194D2AC1072C08B200320887
:1004A000F30030080A128A1553220A128A117408BE
:1004B00083120313C3007308C2004208B20043084A
:1004C000B300B401B50108300310B20DB30DB40D83
:1004D000B50DFF3E031D642A3208BE073308031121
:1004E0000318013E0319752ABF07340803110318C6
:1004F000013E03197C2AC007350803110318013E89
:100500000319832AC1073808B2003908B3003A0832
:10051000B4003B08B50018300310B50CB40CB30C94
:10052000B20CFF3E031D8C2A3208BE0733080311AC
:100530000318013E03199D2ABF073408031103184D
:10054000013E0319A42AC007350803110318013E10
:100550000319AB2AC1070830B2000310B80DB90D5A
:10056000BA0DBB0DB20BAD2A3D083C07B200B3017A
:10057000B30D3208823EC20033080318013EFF3E2D
:10058000C300DF2A0130B2000310BE0DBF0DC00D45
:10059000C10DB20BC42ABB1FCE2ACF2AD02A3E14CB
:1005A0000130B2000310B80DB90DBA0DBB0DB20B7E
:1005B000D22AFF30C2070318C30AFF30C307C01F87
:1005C000E22AE32AC22ABC01BB1FE72AE82A042B3D
:1005D000FF303805B200FF303905B300FF303A056F
:1005E000B4007F303B05B5003508340433043204D1
:1005F0000319FB2AFC2AFF2ABC01BC0A042B3E1C5F
:10060000022B032B042BFC2A3C080319082B092B73
:100610003A2B0130BE07003003180130BF0700300D
:1006200003180130C007003003180130C107411C16
:100630001A2B1B2B3A2B3E08B2003F08B300400890
:10064000B4004108B5000130B600350DB50CB40C4E
:10065000B30CB20CB60B252B3508C1003408C00012
:100660003308BF003208BE000130C2070318C30AB6
:100670000030C3074308803AFF0080307F02031D2B
:10068000432BFF304202031C462B472B522B7F305B
:1006900083120313C1008030C0000030BF0000305F
:1006A000BE00872B831203134308803AFF0080307B
:1006B0007F02031D5D2B013042020318602B612B6A
:1006C0006D2B003083120313C1000030C0000030D6
:1006D000BF000030BE00B701872B8312031342080E
:1006E000B2003208BD00FF30BE05FF30BF057F30CD
:1006F000C0050030C1053D1C7E2B7F2B802BC01711
:100700003D08B2000310320CB3003308C1003708B3
:10071000B2003208C1044108AD004008AC003F08F7
:10072000AB003E08AA000800831203132308803997
:10073000A8002808F3002308A8002807A900290812
:10074000F500A21FA42BA52BA62B75147508031961
:10075000AA2BAB2BBB2B750A031DAF2BB02BB82BD1
:100760000030A3000030A2000030A1000030A00043
:10077000A217A301C32B0030A3000030A200003059
:10078000A1000030A00027088039A8002808F40044
:10079000740873060319CD2BCE2BCF2B73172708A4
:1007A000A8002807A9002908F400A61FD82BD92BD8
:1007B000DA2B741474080319DE2BDF2BEF2B740A69
:1007C000031DE32BE42BEC2B0030A7000030A60028
:1007D0000030A5000030A400A617A701F72B0030B9
:1007E000A7000030A6000030A5000030A400750866
:1007F00074020318FC2BFD2B412C731F002C012CC1
:10080000052C8030A8002808F3067508A8002808E1
:10081000F6007408A8002808F5007608A800280843
:10082000F4002008A8002808F6002408A8002808DA
:10083000A0007608A8002808A4002108A80028081D
:10084000F6002508A8002808A1007608A8002808B6
:10085000A5002208A8002808F6002608A8002808F5
:10086000A2007608A8002808A6002308A8002808E7
:10087000F6002708A8002808A3007608A800280882
:10088000A700F6017408A800A9012908AB007508A3
:100890002802AA00031CAB032B08803AFF0080301B
:1008A0007F02031D552C1A302A02031C582C592C88
:1008B0009A2C831203132308220421042004031D0D
:1008C000622C642C0130652C0030A8002808F6004A
:1008D0000030A3000030A2000030A1000030A000D2
:1008E0007408A8002808F500A02C761C782C792C18
:1008F000842C760883120313A8000310280C0138F7
:10090000A9002908F600862C0310F60C83120313A5
:10091000201C8B2C8C2C8D2CF6170130A800230D5D
:10092000A30CA20CA10CA00CA80B8F2C0130A800CA
:100930002808F50774087502031C9F2CA02C752C41
:10094000731BA32CA42CF32C7508031DA82CA92C15
:10095000B42C003083120313A3000030A200003037
:10096000A1000030A000232E831203132408A00747
:10097000250803110318013E0319BF2CA1072608FF
:1009800003110318013E0319C62CA20727080311FF
:100990000318013E0319CD2CA307231CD02CD12C06
:1009A000A92D761CD42CD52CDE2C7608A80003109B
:1009B000280C0138A9002908F600E02C0310F60CD9
:1009C000201CE32CE42CE52CF6170130A800230DA5
:1009D000A30CA20CA10CA00CA80BE72C0130A800C2
:1009E0002808F507A92D831203132308803AFF0076
:1009F0002708803A7F02031D072D26082202031DC7
:100A0000072D25082102031D072D240820020318A5
:100A10000A2D0B2D632DFF30A800FF30A900FF30F9
:100A2000AA00FF30AB002408AC002508AD00260862
:100A3000AE002708AF002008AC022108031C210FDC
:100A4000222D232DAD022208031C220F282D292D33
:100A5000AE022308031C230F2E2D2F2DAF022C08CE
:100A6000A8072D0803182D0F362D372DA9072E089E
:100A700003182E0F3C2D3D2DAA072F0803182F0A0F
:100A8000AB072B08A3002A08A2002908A100280808
:100A9000A0008030A8002808F306F609F60A7608B8
:100AA000031D532D542D712D0130A0070030031864
:100AB0000130A107003003180130A20700300318ED
:100AC0000130A307712D2408A0022508031C250F5F
:100AD000A1022608031C260FA2022708031C270FC9
:100AE000A3022308220421042004031D782D792D5C
:100AF000A52D7608031D7D2D7E2DA52D0030A3008C
:100B00000030A2000030A1000030A000232E0130F0
:100B1000A8000310A00DA10DA20DA30DA80B892DF7
:100B2000F61F932D942D952D2014761C982D992D1C
:100B30009C2D0314F60D9E2D0310F60D7508031958
:100B4000A22DA32DA52D0130F502A21FA82DA92DA0
:100B5000872DF401F61FAD2DAE2DBC2D76087F3903
:100B60000319B32DB42DB72DF401F40ABC2D201CAC
:100B7000BA2DBB2DBC2DB42D74080319C02DC12D69
:100B8000F52D0130A007003003180130A107003017
:100B900003180130A207003003180130A307231CFB
:100BA000D22DD32DF52D2008A8002108A900220858
:100BB000AA002308AB000130AC002B0DAB0CAA0C33
:100BC000A90CA80CAC0BDD2D2B08A3002A08A20051
:100BD0002908A1002808A000750A0319F02DF12D9D
:100BE000F52D0130A8002808F507750A0319F92D1D
:100BF000FA2DFF2D7508031DFE2DFF2D0D2E003043
:100C0000A3000030A2000030A1000030A000750851
:100C1000031D0B2E0C2E0D2EF301751C102E112E04
:100C2000132EA217172E7F30A8002808A2057508DA
:100C3000A8000310280CA9002908A300F31F212EE7
:100C4000222E232EA3170800831203135208C70075
:100C50005108C6005008C5004F08C4000A128A1582
:100C60007A240A128A11831203134408D400540808
:100C7000DE005E08D400D501D601D7015708F60082
:100C80005608F5005508F4005408F30000300A1225
:100C90008A11EA260A128A11760883120313B30016
:100CA0007508B2007408B1007308B0005208B700AC
:100CB0005108B6005008B5004F08B4000A128A1552
:100CC00008220A128A11831203133308DB00320848
:100CD000DA003108D9003008D8005B08B1005A08A2
:100CE000B0005908AF005808AE004230AD00C8301F
:100CF000AC000030AB000030AA000A128A11332089
:100D00000A128A11831203132D08C7002C08C6008B
:100D10002B08C5002A08C4000A128A157A240A1270
:100D20008A11831203134508DD004408DC005F309C
:100D3000D4005408A4006030D5005508A5006130E7
:100D4000D6005608A6005E080A128A15F6240A1272
:100D50008A11831203135F08D4005308033E8400F2
:100D60005408831380006008D4005308043E8400B4
:100D7000540880006108D4005308053E84005408DC
:100D800080005F30D4005408A4006030D5005508BE
:100D9000A5006130D6005608A6005C080A128A1524
:100DA000F6240A128A11831203135F08D400530831
:100DB000023E84005408831380006008D400530A64
:100DC0008400540880006108D4005308840054084B
:100DD0008000080083120313A40024080319F12ED5
:100DE000F22E062FF61FF52EF62E062F7309A600FB
:100DF0007409A7007509A8007609A900A60A0319B5
:100E0000A70A0319A80A0319A90A0E2F7608A90030
:100E10007508A8007408A7007308A6007608750472
:100E200074047304031D152F162F1F2F0030F600B6
:100E30000030F5000030F4000030F300A52F9630AC
:100E4000A0002008A500312F0130A0002008A50730
:100E500001300310A90CA80CA70CA60CFF3E031D23
:100E6000292FFE302905031D362F372F242F532F0E
:100E70000130A0002008A5070130A60700300318A4
:100E80000130A707003003180130A807003003180D
:100E90000130A90701300310A90CA80CA70CA60C5F
:100EA000FF3E031D4B2FFF302905031D582F592FDF
:100EB000382F652F0130A5020130A0000310A60DC8
:100EC000A70DA80DA90DA00B5E2FA81B682F692FD9
:100ED0006F2F0230250203186E2F6F2F5A2F2518FF
:100EE000722F732F7B2FFF30A605FF30A7057F30B1
:100EF000A805FF30A9050310A50C2508A000A10135
:100F0000A201A30118300310A00DA10DA20DA30D85
:100F1000FF3E031D832F2008A6042108A7042208F2
:100F2000A8042308A90424080319972F982F9D2F9C
:100F3000F61F9B2F9C2F9D2FA9172908F600280824
:100F4000F5002708F4002608F300080083120313B5
:100F5000891088018230F700DD30F600F60BAE2FE5
:100F6000F70BAE2FB32F30300A128A1584210A12E4
:100F70008A110D30F700FB30F600F60BBD2FF70B92
:100F8000BD2FC22F30300A128A1584210A128A110D
:100F90000D30F700FB30F600F60BCC2FF70BCC2F03
:100FA000D12F30300A128A1584210A128A11383062
:100FB0000A128A1584210A128A1106300A128A1529
:100FC00084210A128A110C300A128A1584210A120D
:100FD0008A1101300A128A1584210A128A11080026
:100FE000F4008312031389147408880009151A3059
:100FF000F300F30BF92F000083120313091108000B
:1010000008308A000408840A8207003448345534C2
:101010004D34203452343A3420340034543465345E
:0A1020006D3470343A34203400348B
:101242000A128A1553210A128A158316031391145E
:1012520008000A128A1553210A128A1583160313EB
:10126200111408000A128A1553210A128A158316CC
:10127200031311150800F3000A128A1553210A12EA
:101282008A1573088312031393000800F30073088E
:1012920083120313990083160313981C51295229B0
:1012A2004C29080083160313141958295929532964
:1012B20011081F39031D5E295F2953290800831273
:1012C20003138C1E652966296B291A08F000700821
:1012D200E2008C1272088A00710E8300FE0E7E0EEE
:1012E200090083160313071387170C30990018118E
:1012F20098168312031318168316031318128312F7
:10130200031398170800F500831203138910750858
:10131200880009150B30F4006230F300F30B8F29BB
:10132200F40B8F2900008312031309110800F60041
:10133200F501761C9D299E29A2297308F4007408E0
:10134200F5070310F30D0310F60C7608031DAA2906
:10135200AB299A2975080800831603130910831212
:10136200031309104130F400EE30F300F30BB729F8
:10137200F40BB72900008312031309141030F30091
:10138200F30BC12900008316031309140800F600A9
:10139200DA29760884000A128A1500200A128A15B0
:1013A2000A128A11F0270A128A150130F50075080F
:1013B200F607760884000A128A1500200A128A1596
:1013C200003A031DE529E629CA290800F4000A1299
:1013D2008A1553210A128A158316031391150A12CC
:1013E2008A1553210A128A15831203131308F30074
:1013F200740884007308831380000A128A1553212B
:101402000A128A15831603139112111608008030EE
:1014120083120313B3063708A3003608A200350867
:10142200A1003408A0003308A7003208A600310842
:10143200A5003008A4000A128A1194230A128A1500
:10144200831203132308B3002208B2002108B1005B
:101452002008B000080083120313A0002003031D1C
:10146200332A342A3F2A76087F3EF7007708A10004
:1014720021080A128A1584210A128A15023083125F
:1014820003132006031D462A472A522A7608BF3E26
:10149200F7007708A10021080A128A1584210A128E
:1014A2008A15080083120313A400A001A101730886
:1014B200F500F6017508A2007608A300241C622A32
:1014C200632A692A2208A0070318A10A2308A10790
:1014D20001300310A20DA30DFF3E031D6A2A031063
:1014E200A40C2408031D762A772A5F2A2108F40017
:1014F2002008F3000800831203138F018E011014D9
:101502000918842A852A8B2A64300E02031C8A2A2F
:101512008B2A812A64300E02031C902A912A932A74
:101522000030A72A8F018E01091C982A992A9F2A26
:1015320064300E02031C9E2A9F2A952A64300E02F2
:10154200031CA42AA52AA62A912A01300800F60023
:101552007608840083138001F50183120313091CAA
:10156200B32AB42AAE2A8F018E010918B92ABA2ADF
:10157200B62A33300E02031CBF2AC02AD22A0130F7
:10158200F3007508073C013EC82A0310F30DFF3E25
:10159200031DC62A7308F4007608840074088313B6
:1015A20080040130F3007308F50708307502031C4C
:1015B200DB2ADC2AAE2A0800831603178801890178
:1015C200831603138501860188018910091183128C
:1015D20003138501860188010A128A1572210A12F3
:1015E2008A157030831603138F040F148B170B1791
:1015F200831203138C12831603138C16103083127A
:10160200031390008F018E010030B0000130AF0053
:101612008630AE00A030AD000A128A1513230A12DA
:101622008A150800283083120313940083160313CB
:10163200910180309400831203132D08F4002E08C8
:10164200F5002F08F6003008F70002300310F40D01
:10165200F50DF60DF70DFF3E031D272B7708A300AE
:101662007608A2007508A1007408A0000030A70047
:101672007A30A6001230A5000030A4000A128A15A2
:10168200A9230A128A15831203132008FF3E831628
:101692000313930087150716080083120313A10191
:1016A200F61F542B552B5C2BF509F609F50A031985
:1016B200F60AA101A10AF41F5F2B602B652BF30927
:1016C200F409F30A0319F40A7308740403196A2B60
:1016D2006B2B9A2BA001A00A792B01300310F30D7A
:1016E200F40DFF3E031D6F2B0130F7007708A007B2
:1016F200F41F7C2B7D2B6E2B74087602031D832B2B
:1017020073087502031C862B872B8D2B7308F50239
:101712007408031CF603F60201300310F40CF30CF8
:10172200FF3E031D8E2B0130A002031D992B9A2B25
:101732007D2B210803199E2B9F2BA42BF509F6095B
:10174200F50A0319F60A7608F4007508F300080092
:10175200003083120313AB000030AA000030A9004E
:101762000030A80023082204210420040319BA2B04
:10177200BB2B082CAC01AC0ACB2B0130F3000310BD
:10178200A00DA10DA20DA30DF30BC02B0130F30090
:101792007308AC07A31FCE2BCF2BBE2B0130F30057
:1017A2000310A80DA90DAA0DAB0DF30BD12B230825
:1017B2002702031DE62B22082602031DE62B210821
:1017C2002502031DE62B20082402031CE92BEA2B29
:1017D200F92B2008A4022108031C210FA5022208CC
:1017E200031C220FA6022308031C230FA70228149E
:1017F20001300310A30CA20CA10CA00CFF3E031D90
:10180200FA2B0130AC02031D072C082CCF2B2B081E
:10181200A3002A08A2002908A1002808A0000800A5
:1018220083120313A101F41F172C182C1F2CF30988
:10183200F409F30A0319F40AA101A10AF61F222CE2
:10184200232C2C2CF509F609F50A0319F60A0130A6
:10185200F7007708A106A201A30173087404031913
:10186200332C342C6B2CA001A00A422C0130031023
:10187200F30DF40DFF3E031D382C0130F7007708FD
:10188200A007F41F452C462C372C01300310A20D63
:10189200A30DFF3E031D472C74087602031D532C33
:1018A20073087502031C562C572C5E2C7308F50224
:1018B2007408031CF603F602221401300310F40C20
:1018C200F30CFF3E031D5F2C0130A002031D6A2CA6
:1018D2006B2C462C210803196F2C702C752CA20935
:1018E200A309A20A0319A30A2308F4002208F30099
:1018F2000800031083120313460D470DC800480861
:10190200CE004E08031D862C872C902C0030C70079
:101912000030C6000030C5000030C400F52C440879
:10192200C8004508C9004608CA004708CB001F3056
:101932000310CB0CCA0CC90CC80CFF3E031D992C1A
:101942004808CC004C08CD00C617FF30C405FF3054
:10195200C505FF30C6050030C7059630CE02CE1F42
:10196200B32CB42CCE2C4E08803A973E0318BA2CD6
:10197200BB2CBC2C872C01300310C70CC60CC50C29
:10198200C40CFF3E031DBD2C0130C8004808CE0721
:10199200031DCC2CCD2CBC2CE52C20304E02031C7C
:1019A200D32CD42CE02C872C0130C8000310C40D9A
:1019B200C50DC60DC70DC80BD72C0130CE024E087F
:1019C200031DE42CE52CD52C4D080319E92CEA2C37
:1019D200F52CC409C509C609C709C40A0319C50AF1
:1019E2000319C60A0319C70A080083120313AA00BF
:1019F2002A08A7002708AB0024088400831380016B
:101A0200250884008001260884008001332D64307B
:101A1200F3000030F4002B08A700A8012708F50006
:101A22002808F6000A128A1511240A128A15730868
:101A320083120313A9002608840029088313800057
:101A42009C30A7002708F3002608840000080A1229
:101A52008A1598210A128A15831203132B07A800EC
:101A62002808AB0064302B020318382D392D082DBD
:101A7200652D0A30F3000030F4002B08A700A801FE
:101A82002708F5002808F6000A128A1511240A12FE
:101A92008A15730883120313A900250884002908F4
:101AA20083138000F630A7002708F300250884007E
:101AB20000080A128A1598210A128A158312031342
:101AC2002B07A8002808AB000A302B0203186A2D46
:101AD2006B2D3A2D2B08A7002408840027088313B6
:101AE200800008000A128A15DD220A128A150A12DB
:101AF2008A11A6270A128A15831203138F018E01F7
:101B02000A128A152A210A128A1590300A128A1597
:101B12003C210A128A1501300A128A153C210A1246
:101B22008A1500300A128A153C210A128A150A12F5
:101B32008A1533210A128A15333083160313AE0035
:101B4200BB30AD00DF30AC00AC0BA52DAD0BA52D2D
:101B5200AE0BA52D0A128A152A210A128A15903077
:101B62000A128A153C210A128A1500300A128A15B5
:101B72003C210A128A150A128A1521210A128A1593
:101B820091300A128A153C210A128A1564300A120F
:101B92008A15E7210A128A1563300A128A15E7218B
:101BA2000A128A150A128A1533210A128A15831219
:101BB2000313630883160313AC0005300310AC0C47
:101BC200FF3E031DDF2D2C08AD00AE01831203136F
:101BD200640883160313AF00B0010310AF0DB00DFC
:101BE2000310AF0DB00D0310AF0DB00D2D082F0473
:101BF200A4002E083004A5003E3083120313AD006A
:101C02000030AC000030AB000030AA008316031392
:101C12002408F3002508F400F501F60100300A1249
:101C22008A11EA260A128A15760883120313B10072
:101C32007508B0007408AF007308AE000A128A116A
:101C420033200A128A15831203132D0883160313F5
:101C5200A300831203132C0883160313A20083121A
:101C620003132B0883160313A100831203132A08FC
:101C720083160313A000230883120313D2008316D2
:101C82000313220883120313D100831603132108BE
:101C920083120313D0008316031320088312031345
:101CA200CF00A63083160313AC002C088312031353
:101CB200D3000A128A1124260A128A15F601F60A9C
:101CC20001300A128A152C220A128A1509300A12C8
:101CD2008A15C8210A128A15831603132B08303E6F
:101CE2000A128A11F0270A128A15831603132A0888
:101CF200303E0A128A11F0270A128A15831603133C
:101D02002908303E0A128A11F0270A128A152E304B
:101D12000A128A11F0270A128A158316031327085A
:101D2200303E0A128A11F0270A128A15831603130B
:101D32002808303E0A128A11F0270A128A158316E1
:101D420003132608303E0A128A11F0270A128A1556
:101D5200DF300A128A11F0270A128A1543300A125A
:101D62008A11F0270A128A15F601F60A02300A12BF
:101D72008A152C220A128A1501300A128A15C821E4
:101D82000A128A1578080A128A11F0270A128A158D
:101D920079080A128A11F0270A128A1525300A12C6
:101DA2008A11F0270A128A15F92E831203130614D8
:101DB200861006158611162F831203130610861439
:101DC20006118615162F83120313061486100611A8
:101DD2008615162F83120313061086140615861114
:101DE200162F831203130610861006118611162F62
:101DF20083120313620883160313AC00AD012D088E
:101E0200003A0319052F162F2C08613A0319D62E12
:101E1200033A0319DD2E013A0319E42E073A031996
:101E2200EB2E013A0319F22E162F0A128A15AD2152
:101E32000A128A150A128A157C220A128A15003A97
:101E42000319242F252FB12F67300A128A15A822D1
:101E52000A128A1566300A128A15A8220A128A15EF
:101E620069300A128A15A8220A128A1568300A12E3
:101E72008A15A8220A128A1565300A128A15A82222
:101E82000A128A158312031367086607831603135F
:101E9200AC00AD01AD0D8312031369088316031361
:101EA2002C07AE000030031801302D07AF0083125B
:101EB20003136808831603132E07B00000300318BB
:101EC20001302F07B100FF303005B200003031057C
:101ED200B30083120313650883160313B400B5011C
:101EE20033083506031D772F32083406031D7A2F77
:101EF2007B2FB12F0A30F3000030F400831203135A
:101F0200670883160313AC00AD012C08F5002D08F9
:101F1200F6000A128A1511240A128A157308303E35
:101F220083160313AE002E08F8000A30F3000030C7
:101F3200F40083120313670883160313AC00AD0188
:101F42002C08F5002D08F6000A128A154E230A12F3
:101F52008A157308303E83160313AE002E08F9006B
:101F62008312031310100A300A128A1547210A122B
:101F72008A15831603132B08303E0A128A1547214D
:101F82000A128A15831603132A08303E0A128A158A
:101F920047210A128A15831603132908303E0A12B2
:101FA2008A1547210A128A150A300A128A15472110
:101FB2000A128A1578080A128A1547210A128A1506
:101FC20079080A128A1547210A128A150A300A125A
:101FD2008A1547210A128A15023083160313AE00AE
:101FE2000430AD00B930AC00AC0BF52FAD0BF52FC2
:0E1FF200AE0BF52FFC2FAB2D0A128A110C2816
:04400E00F420FF3F5C
:00000001FF
