:020000040000FA
:060000000A128A110C280F
:10000800FE00030EF8000A08F9000A128A112128D6
:100018000A128A110F28F001F101F201F301F4012B
:10002800F50183120313A001A101A201A301A401F8
:10003800A50183010A128A11DD28831203138C1E7D
:10004800262827282C281A08F6007608F3008C1290
:100058008C1D2F2830288F281412141B342835287B
:100068003928941F3828392840281308F6007608BC
:10007800F500141394131416831603131419452842
:1000880046286728941A49284A28672883120313A0
:100098001308F6007608F500141683160313141CCB
:1000A800562857285128831203131308F600760898
:1000B800F4000330F7009730F600F60B6128F70BD1
:1000C800612866288C28141D6A286B288C28941AA5
:1000D8006E286F288C28831203131308F6007608FD
:1000E800F500831603131410730883120313930087
:1000F80014160330F7009730F600F60B8128F70B3B
:10010800812886288316031314188B288C288628A0
:10011800831203138C1179088A00780E8300FE0E6F
:100128007E0E0900831603178801890101308316A2
:100138000313850086018801890183120313850151
:10014800860188017030831603138F040F148B17F0
:100158000B17831203138C11831603138C1520308D
:100168000A128A11CC200A128A1108008316031376
:10017800071387170C309900181198168312031368
:1001880018168316031318128312031398170800FE
:10019800FA007A0883160313930026308312031398
:1001A8009400831603139101803094008715071675
:1001B80008000A128A1196200A128A110A128A1154
:0E01C800BA200A128A11E7280A128A110C289E
:04400E00F420FF3F5C
:00000001FF
