:020000040000FA
:060000000A128A110E280D
:10000800FE00030EF2000408F3000A08F4000A12C6
:100018008A1123280A128A111128F501F601F7011D
:10002800F80183120313A001A101A201A301A401F5
:10003800A501A601A70183010A128A11E7288312E4
:1000480003138C1D28282928DE281412141B2D2898
:100058002E283228941F3128322839281308F00016
:100068007008F80014139413141683160313141944
:100078003E283F28B628941A42284328B6288312D7
:1000880003131308F0007008F800141683160313FE
:10009800141C4F2850284A28831203131308F00011
:1000A8007008F7007F287708F0007008A500A128DD
:1000B8007708F0007008A400A1287708F0007008FD
:1000C800A300A1287708F0007008A200A1287708EB
:1000D800F0007008A100A1287708F0007008A000BF
:1000E800A1287708F0007008A600A1287708F0007A
:1000F8007008A700A1287508F000F1017108003AFE
:1001080003198728A1287008003A03195728013ACB
:1001180003195C28033A03196128013A0319662870
:10012800073A03196B28013A03197028033A03198F
:100138007528013A03197A28A1280130F0007008BF
:10014800F50708307502031CAA28AB28AC28F5016E
:100158000330F1009730F000F00BB028F10BB02815
:10016800B528DB28141DB928BA28DB28941ABD281D
:10017800BE28DB28831203131308F0007008F80068
:1001880083160313141076088312031393001416AE
:100198000330F1009730F000F00BD028F10BD02895
:1001A800D528831603131418DA28DB28D5288312D8
:1001B80003138C1174088A0073088400720E83007C
:1001C800FE0E7E0E09000A128A11A2210A128A1155
:1001D8000A128A1155210A128A1183120313AB01DC
:1001E800AB0A01300A128A11CC210A128A11831231
:1001F80003132508303E0A128A111C220A128A119A
:10020800831203132408303E0A128A111C220A1290
:100218008A11831203132308303E0A128A111C2202
:100228000A128A112E300A128A111C220A128A1105
:10023800831203132208303E0A128A111C220A1262
:100248008A11831203132108303E0A128A111C22D4
:100258000A128A11831203132008303E0A128A11E7
:100268001C220A128A1183120313AB01AB0A023053
:100278000A128A11CC210A128A1183120313260842
:100288000A128A111C220A128A11831203132708E0
:100298000A128A111C220A128A11F1280A128A11DA
:1002A8000E288312031389108801823083120313E6
:1002B800AC00DD30AB00AB0B5F29AC0B5F293030F5
:1002C8000A128A11F3210A128A110D3083120313BC
:1002D800AC00FB30AB00AB0B6F29AC0B6F29303097
:1002E8000A128A11F3210A128A110D30831203139C
:1002F800AC00FB30AB00AB0B7F29AC0B7F29303057
:100308000A128A11F3210A128A1138300A128A1144
:10031800F3210A128A1106300A128A11F3210A12ED
:100328008A110C300A128A11F3210A128A1101303B
:100338000A128A11F3210A128A1108008316031778
:10034800880189010130831603138500860188011D
:100358008312031385018601880170308316031305
:100368008F040F14F5018B170B17831203130C134B
:10037800831603130C17831203138C1183160313AC
:100388008C1520300A128A1109220A128A110800D3
:1003980083120313AD002D03031DD329D429DF29AC
:1003A8002B087F3EAC002C08AE002E080A128A11DA
:1003B800F3210A128A110230831203132D06031D3A
:1003C800E629E729F2292B08BF3EAC002C08AE002D
:1003D8002E080A128A11F3210A128A1108008312C0
:1003E8000313AA0089102A08880009150B30831204
:1003F8000313A9006130A800A80B002AA90B002A42
:10040800052A831203130911080083120313A80095
:1004180028088316031393002630831203139400CD
:10042800831603139101803094008715071608007E
:1004380083120313A90089142908880009151930A3
:1004480083120313A800A80B272A2A2A831203134E
:04045800091108007E
:04400E00F420FF3F5C
:00000001FF
